:020000040800F2
:10000000008E0020A102000883570008BD330008BD
:100010007F570008290A00084F630008000000000D
:100020000000000000000000000000004D5B000820
:100030002D0A000800000000170200084F5B0008AE
:10004000BB020008BB020008BB020008BB0200089C
:10005000BB020008BB020008BB020008BB0200088C
:10006000BB020008BB020008BB020008BB0200087C
:10007000BB020008BB020008BB020008BB0200086C
:10008000BB020008BB020008BB020008BB0200085C
:10009000BB020008BB020008BB020008BB0200084C
:1000A000BB020008BB020008BB020008BB0200083C
:1000B000BB020008BB020008BB020008BB0200082C
:1000C000BB020008BB020008BB020008BB0200081C
:1000D000BB020008BB020008BB020008BB0200080C
:1000E0002F0A0008BB020008BB020008BB02000880
:1000F000BB020008BB020008BB020008BB020008EC
:10010000BB020008BB020008BB020008BB020008DB
:10011000BB020008BB020008BB020008BB020008CB
:10012000BB020008BB020008BB020008BB020008BB
:10013000BB020008BB020008BB020008BB020008AB
:10014000BB020008BB020008BB020008BB0200089B
:10015000BB020008BB020008BB020008BB0200088B
:10016000BB020008BB020008BB020008BB0200087B
:10017000BB020008BB020008BB0200080000000030
:10018000BB020008BB020008DFF80CD000F036FB11
:1001900000480047656C0008008E0020344C354D47
:1001A000256035484FF0010101604FF0020080F3F7
:1001B00014883248426831480260304B186887889A
:1001C0004FF0100847EA08078780D0F800C00CF10C
:1001D000640CBCE8FF000CF1480C8CF309882DED91
:1001E000010ABDEC010AAE4662B63047EFF3058066
:1001F000704772B67047EFF3108072B67047EFF336
:10020000108062B6704780F3108870471C484FF02A
:10021000805101607047EFF3108C72B6194A126872
:1002200022B12DE900509047BDE80050EFF309805E
:1002300020E9F01F20ED108B104D2E683060B7883C
:100240004FF0100827EA0807B7800C48406828607C
:1002500087884FF0100847EA08078780016800F098
:1002600013B800F017B881F309888CF31088704731
:1002700020ED00E00000F0F0500400201804002001
:1002800004ED00E054040020B1EC088BB1EC08CB85
:10029000FFF7E7BF30C9B1E8C01FFFF7E4BF0000B8
:1002A0000648804706480047FEE7FEE7FEE7FEE710
:1002B000FEE7FEE7FEE7FEE7FEE7FEE7C95B0008B4
:1002C000890100082DE9F05F0546002092469B4613
:1002D00088460646814640241BE02846414647465C
:1002E000224600F0E1F853465A46C01A914110D315
:1002F00011461846224600F0C8F82D1A67EB01088F
:100300004F4622460120002100F0BFF817EB0009FC
:100310004E41201EA4F10104DFDC484631462A4646
:10032000434600F000B830BCBDE8C09FD2B201E047
:1003300000F8012B491EFBD270470022F6E710B5EA
:1003400013460A4604461946FFF7F0FF204610BD43
:100350002DE9F04D81EA030404F0004B21F0004543
:1003600014464FF0000A23F0004150EA050220D065
:1003700054EA01021DD0C5F30A570246C5F3130320
:10038000C1F31300C1F30A5640F4801543F48013FF
:10039000A7EB0608101BD64608F2FD3873EB0500E4
:1003A00002D308F1010801E092185B41B8F1000F97
:1003B00003DA00200146BDE8F08D00204FF48011E3
:1003C000064684460EE0171B73EB050705D3121B88
:1003D00063EB050306434CEA010C49084FEA300081
:1003E00092185B4150EA0107EDD152EA030012D0A6
:1003F00082EA040083EA0501084305D0101BAB41E3
:1004000006D20122002306E000224FF0004302E062
:100410006FF0010253101AEB06004CEB085110EB81
:100420000A0041EB0B01BDE8F04D00F04DB8C1F3FF
:100430000A52C1F3130140F2FF3341F480119A4292
:1004400002DA00200146704740F233439A42A2F29A
:10045000334202DC524200F027B800F016B830B543
:100460000B46014600202022012409E021FA02F572
:100470009D4205D303FA02F5491B04FA02F528440C
:10048000151EA2F10102F1DC30BD202A04DB203A66
:1004900000FA02F1002070479140C2F1200320FAD7
:1004A00003F3194390407047202A04DB203A21FAD5
:1004B00002F00021704721FA02F3D040C2F120027D
:1004C000914008431946704710B5141E73F100049B
:1004D00008DA401C41F1000192185B411A4301D136
:1004E00020F0010010BD2DE9F04D92469B4611B160
:1004F000B1FA81F202E0B0FA80F220329046FFF7C2
:10050000C4FF04460F4640EA0A0041EA0B01534685
:100510005A46084313D0114653EA010019D0C8F1D6
:1005200040025046FFF7C0FF05460E46504659466A
:100530004246FFF7AAFF084305D0012004E0204609
:100540003946BDE8F08D0020054346EAE0762C43AD
:1005500037430A986305E40AA0EB08000022FD0A6D
:1005600044EA47540A3002D500200146E9E7010574
:1005700010196941DDE9084500196941BDE8F04DF0
:10058000A2E72DE9FE4F804681EA0300C00F0C462A
:10059000009021F0004123F00045B8EB0200A94192
:1005A00005D24046214690461C460B46024623F0A3
:1005B0000040104347D0270DC7F30A00C3F30A5188
:1005C0000290401A019040286BDAC3F3130040F404
:1005D000801B0098924620B10023D2EB030A63EB04
:1005E0000B0B01985946C0F140025046FFF74DFFF2
:1005F00006460D4650465946019A00F011F910EB97
:1006000008006141002487EA115284EAE7731A4323
:1006100040D0009A62B3019A012A4FEA075215DCD2
:10062000001B61EB02014FF0004202EA0752CDE9E4
:100630000042001C41F5801132462B46FFF753FF64
:1006400003B000F045B840462146F9E7001B61EBD6
:100650000201001C41F5801300185B412018A2F52F
:10066000001747EB030140EAD570B6196D4111E060
:100670006D084FEA360645EAC0754FEA0752001B7F
:1006800061EB0201001C41F5801149084FEA30007E
:100690000019514132462B4603B000F01CB8FFF759
:1006A00013BF0098012240000023D0EB020263EB4D
:1006B000E073009821464FEAE074B8EB000061EB6C
:1006C0000401E9E783F000435BE781F0004158E76C
:1006D00030BCBDE8C08F30BCBDE8C04FFFF7DFBF06
:1006E0002DE9FE4F81EA030404F0004421F00041AB
:1006F00000944FF0000B23F0004350EA01045ED059
:1007000052EA03045BD0C3F30A54C1F30A552C44E4
:10071000A4F2F3340194A0FB0254C1F3130141F499
:100720008011C3F3130343F4801301FB024400FB65
:10073000034E840A970A44EA815447EA8357A4FB8C
:10074000076802958D0A05FB07854FEA932C04FB89
:100750000C542705029D4FEA065847EA1637B5EBB9
:1007600008056EEB070C870E920E47EA811742EAE6
:100770008312A7FB0201B6EB0B0164EB00042B0D07
:1007800043EA0C335E1844EB1C50DA465146E7FB53
:100790000201C5F313044FEA0B3343EA14534FEA43
:1007A0000432019C43EA0603A4F10C040294009C69
:1007B000CDE900B4FFF797FE03B000F003B80020C6
:1007C0000146F9E730BCBDE8C08F000030B5041E1B
:1007D00071F1000404DB4FF00044404264EB01017E
:1007E000141E73F1000405DB1C464FF00043524217
:1007F00063EB0403994208BF904230BD064C074D9D
:1008000006E0E06840F0010394E8070098471034E0
:10081000AC42F6D3FFF7BCFCAC820008DC820008D7
:10082000202A06DBCB17203A41FA02F043EAE073B4
:1008300006E041FA02F3D040C2F1200291400843A1
:100840001946704770B58C1810F8015B15F0070356
:1008500001D110F8013B2A1106D110F8012B03E059
:1008600010F8016B01F8016B5B1EF9D12B0705D461
:100870000023521E0DD401F8013BFAE710F8013BAA
:10088000CB1A921C03E013F8015B01F8015B521EC6
:10089000F9D5A142D8D3002070BD000010B586B0B4
:1008A0000446142101A8FFF748FD00BF6CB900BF42
:1008B0000F48C06C40F001000D49C8640846C06C88
:1008C00000F00100009000BF00BF00BF094830F8F1
:1008D0001400019001200290002003900220049057
:1008E000054951F8240001A901F0BAFB06B010BD7A
:1008F0000010024060820008A405002010B50446E4
:10090000044A32F81410044A52F82400002201F07C
:10091000B7FC10BD60820008A405002010B5044695
:10092000044A32F81410044A52F82400012201F05B
:10093000A7FC10BD60820008A405002010B5044685
:10094000044A32F81410044A52F8240001F094FCCE
:1009500010BD000060820008A405002010B5044608
:10096000044A32F81410044A52F8240001F07CFCC6
:1009700010BD000062820008A805002030B587B0D5
:1009800004460D46142102A8FFF7D7FC00BF6CB93E
:1009900000BF2048C06C40F004001E49C8640846EF
:1009A000C06C00F00400019000BF00BF00BF7DB923
:1009B000194830F81400029000200390049002209F
:1009C0000590164951F8240002A901F049FB1FE0E7
:1009D000012D1DD1104830F81400029010480390EA
:1009E00000200490022005900C4951F8240002A92F
:1009F00001F036FB0B4911F8141048B200220F2108
:100A000001F073FC074911F8141048B201F060FCC2
:100A100007B030BD0010024062820008A805002027
:100A2000000021106482000800BFFEE7704710B587
:100A30004FF4005001F006FB10BD0020FFF75EFFF1
:100A400000BFFEE770B500244FF400412448006861
:100A500003F074FB05461DB922A005F07BFC04E001
:100A600025A005F077FC012070BD04211C4800681A
:100A700003F0E4FA044624B925A005F06BFC01203C
:100A8000F2E728A005F066FC4FF44F70206029A023
:100A9000216805F05FFC21461148006803F024FB43
:100AA000054665B927A005F055FC0021092002F094
:100AB000BFFF05468DB127A005F04CFC0DE02BA033
:100AC00005F048FC0121092002F0B2FF054615B1EE
:100AD00020A005F03FFC0120C6E70020C4E700008D
:100AE000940400206D656D706F6F6C20696E697481
:100AF000206F6B210A0000006D656D706F6F6C20B8
:100B0000696E6974206661696C6564210A00000081
:100B10006D656D20616C6C6F63206661696C6564E6
:100B2000210A00006D656D20616C6C6F63206F6B36
:100B30000A0000002A705F6E756D203D2025640A52
:100B4000000000006D656D2066726565206F6B2189
:100B50000A00000053657420496E73706563742049
:100B6000537461747573204572720A006D656D204F
:100B700066726565206661696C6564210A00000023
:100B800070B50025012113A005F0E4FB64230422C5
:100B90000121184802F06CFD0446012C0DD12146BC
:100BA00015A005F0D7FB0021012002F041FF05460A
:100BB0007DB119A005F0CEFB0BE01DA005F0CAFB2E
:100BC0000121084602F034FF054615B112A005F0D8
:100BD000C1FB70BD4578616D706C655F4576656E73
:100BE000742077616974206576656E74203078258D
:100BF00078200A00B48700204578616D706C655FCD
:100C00004576656E742C72656164206576656E74D8
:100C1000203A307825780A0053657420496E737045
:100C200065637420537461747573204572720A0091
:100C30004578616D706C655F4576656E742C726584
:100C40006164206576656E742074696D656F757476
:100C50000A0000002DE9F0474FF0000802F01CFCEC
:100C60008146B9F1000F03D0494622A005F072FB7E
:100C700004F062FD04460D4600231A4663406A40B4
:100C8000134303D0214622A005F064FBC82004F0E2
:100C900025FB04F051FD06460F4600221346724024
:100CA0007B401A4303D031461FA005F053FB311B94
:100CB00067EB0500C83970F100000DD30021052055
:100CC00002F0B6FE8046B8F1000F02D01FA005F07A
:100CD00041FB0020BDE8F0870121052002F0A8FEBD
:100CE0008046B8F1000F02D018A005F033FB0120B8
:100CF000F0E700004C4F535F4379636C65506572B9
:100D00005469636B476574203D202564200A000008
:100D10004C4F535F5469636B436F756E74476574D2
:100D2000203D202564200A004C4F535F5469636BBB
:100D3000436F756E744765742061667465722064D4
:100D4000656C6179203D202564200A00536574207C
:100D5000496E7370656374205374617475732045B4
:100D600072720A0010B58CB000241F48019009204F
:100D7000ADF808004FF4347007901CA00890802054
:100D8000099004F09FFB01A90BA804F093F9044615
:100D900034B1214618A005F0DDFA20460CB010BD94
:100DA0001D48019001A90AA804F084F904462CB159
:100DB00021461AA005F0CEFA2046EFE718200023BE
:100DC0001E4A052100901EA003F0E4FC04461CB15D
:100DD00021461DA005F0BEFA23A005F0BBFA04F0E1
:100DE0004BFC0020DAE70000D580000873656E64D4
:100DF00051756575650000006372656174652074E6
:100E000061736B31206661696C6564212C65727257
:100E10006F723A25780A0000DD7F00086372656111
:100E20007465207461736B32206661696C6564213E
:100E30002C6572726F723A25780A0000A4040020B3
:100E40007175657565000000637265617465207178
:100E500075657565206661696C757265212C6572B2
:100E6000726F723A25780A00637265617465207446
:100E70006865207175657565207375636365737347
:100E8000210A000010B592B02C4803F085FA04F056
:100E900019FB242109A8FFF750FA2948099029A035
:100EA00010904FF434700F900520ADF8280009A978
:100EB000274804F0FFF804462CB126A005F04AFAB2
:100EC000012012B010BD24216846FFF736FA2748EA
:100ED000009027A007904FF4347006900420ADF8DE
:100EE00004006946254804F0E5F8044624B124A02E
:100EF00005F030FA0120E4E704F0BEFB4FF49670F1
:100F000004F0ECF90D48006803F078FA1048006826
:100F100004F024FA044624B11FA005F01BFA0120B6
:100F2000CFE71648006804F019FA044624B120A05F
:100F300005F010FA0120C4E70020C2E7BC0400203D
:100F4000C90F00084D7574657854736B310000004B
:100F5000C00400207461736B312063726561746535
:100F6000206661696C6564202E0A0000011100088A
:100F70004D7574657854736B32000000C404002012
:100F80007461736B32206372656174652066616998
:100F90006C6564202E0A00007461736B31206465F7
:100FA0006C657465206661696C6564202E0A0000BA
:100FB0007461736B322064656C6574652066616969
:100FC0006C6564202E0A000010B519A005F0C2F966
:100FD0000A212148006803F045FA04463CB91FA0E5
:100FE00005F0B8F91C48006803F004FB10BD234865
:100FF00084421BD122A005F0ADF94FF0FF31164815
:10100000006803F02FFA044684B92AA005F0A2F97B
:101010001148006803F0EEFA0021042002F008FDF8
:10102000044614B130A005F095F9DFE700BFDDE715
:101030007461736B312074727920746F20676574EA
:10104000206D757465782C207761697420313020AB
:101050005469636B2E0A0000BC0400207461736B3A
:101060003120676574206D7574657820675F5465FD
:1010700073746D757830312E0A000000071D000270
:101080007461736B312074696D656F757420616E66
:10109000642074727920746F2067657420206D75E8
:1010A0007465782C207761697420666F7265766547
:1010B000722E0A007461736B312077616974206647
:1010C0006F72657665722C676F74206D75746578C4
:1010D00020675F546573746D757830312073756364
:1010E000636573732E0A000053657420496E737034
:1010F00065637420537461747573204572720A00BD
:1011000010B50FA005F026F94FF0FF311648006822
:1011100003F0A8F904461CB114A005F01BF910BD9A
:1011200019A005F017F9642004F0D8F823A005F001
:1011300011F90D48006803F05DFA00BFEFE7000009
:101140007461736B322074727920746F20676574D8
:10115000206D757465782C207761697420666F72D4
:10116000657665722E0A0000BC0400207461736B02
:1011700032204C4F535F4D757850656E6420666128
:10118000696C6564202E0A007461736B3220676598
:1011900074206D7574657820675F546573746D7520
:1011A00078303120616E642073757370656E6420D1
:1011B000313030205469636B2E0A00007461736B08
:1011C0003220726573756D656420616E6420706F86
:1011D00073742074686520675F546573746D7578E7
:1011E00030310A0010B518A005F0B4F80A212548DE
:1011F000006803F02DFD044624B92248006803F07E
:10120000E7FD10BD204884421CD1204805F0A2F81B
:101210004FF0FF311B48006803F01AFD0446002C14
:1012200010D11BA005F096F81648006803F0D0FD19
:101230000021032002F0FCFB044614B124A005F0B9
:1012400089F8DEE700BFDCE74578616D706C655FAB
:1012500053656D5461736B312074727920676574C6
:101260002073656D20675F757353656D4944202C4D
:1012700074696D656F7574203130207469636B73A8
:101280002E0A0000D0040020070700026882000830
:101290004578616D706C655F53656D5461736B313A
:1012A00020776169745F666F726576657220616E22
:1012B0006420676F742073656D20675F7573536575
:1012C0006D494420737563636573732E0A000000D3
:1012D00053657420496E7370656374205374617430
:1012E0007573204572720A0010B50CA005F032F833
:1012F0004FF0FF311748006803F0AAFC044614B908
:1013000015A005F027F8142003F0E8FF22A005F04F
:1013100021F81048006803F05BFD10BD4578616D51
:10132000706C655F53656D5461736B3220747279B4
:10133000206765742073656D20675F757353656DF5
:101340004944207761697420666F72657665722EF4
:101350000A000000D00400204578616D706C655F64
:1013600053656D5461736B32206765742073656DCE
:1013700020675F757353656D494420616E64207406
:1013800068656E2064656C61792032307469636BC6
:1013900073202E0A000000004578616D706C655F57
:1013A00053656D5461736B3220706F737420736575
:1013B0006D20675F757353656D4944202E0A0000E8
:1013C00010B592B000243149002003F0DBFB04F09B
:1013D00079F8242109A8FEF7B0FF2D4809902DA027
:1013E00010904FF4A0600F900520ADF8280009A9D7
:1013F0002B4803F05FFE04462CB12AA004F0AAFF9C
:10140000012012B010BD24216846FEF796FF2B483C
:1014100000902BA007904FF4A06006900420ADF838
:1014200004006946294803F045FE044664B128A03B
:1014300004F090FF1A48006803F090FF10B12AA052
:1014400004F088FF0120DCE704F016F90F4800687B
:1014500003F0BEFC0446282003F040FF0B48006860
:1014600003F0C6FB0E48006803F078FF18B11EA019
:1014700004F070FF01241548006803F06FFF18B1F5
:101480001FA004F067FF01242046BAE7D004002023
:10149000E51100084D7574657854736B31000000D8
:1014A000C80400207461736B3120637265617465D8
:1014B000206661696C6564202E0A0000E91200084C
:1014C0004D7574657854736B32000000CC040020B5
:1014D0007461736B32206372656174652066616943
:1014E0006C6564202E0A00007461736B31206465A2
:1014F0006C657465206661696C6564202E0A000065
:101500007461736B322064656C6574652066616913
:101510006C6564202E0A000010B58AB0274802F0DE
:1015200071F804462CB126A004F014FF01200AB083
:1015300010BD242101A8FEF700FF2748019027A035
:1015400008904FF4347007900520ADF8080001A909
:10155000254803F0AFFD044624B124A004F0FAFEB0
:101560000120E4E727A004F0F5FE0121134802F072
:1015700031F9044624B12DA004F0ECFE0120D6E799
:101580000E4801682FA004F0E5FE0C480068C14336
:101590000A4802F023F8094801682AA004F0DAFE9C
:1015A0001148006803F0DAFE044624B129A004F0D3
:1015B000D1FE0120BBE70020B9E70000B48700207E
:1015C000696E6974206576656E74206661696C6504
:1015D00064202E0A00000000810B00084576656E2D
:1015E0007454736B31000000A00400207461736BAD
:1015F00020637265617465206661696C6564202E84
:101600000A0000004578616D706C655F5461736B12
:10161000456E7472795F4576656E74207772697471
:1016200065206576656E74202E0A00006576656E0D
:1016300074207772697465206661696C6564202E18
:101640000A0000004576656E744D61736B3A25643F
:101650000A0000007461736B2064656C657465201A
:101660006661696C6564202E0A0000002DE9F04176
:1016700000240326302732463946254802F04CFE26
:1016800005462DB123A004F065FE0120BDE8F081E0
:1016900026A004F05FFE1E4802F0BEFD044624B9F9
:1016A00027A004F057FE0120F0E72BA004F052FE23
:1016B0004FF44F7020602DA0216804F04BFE2146AE
:1016C000134802F0C9FD2DA0216804F043FE214615
:1016D0000F4802F0CFFD054665B92FA004F03AFE91
:1016E0000021082002F0A4F905467DB12FA004F0E6
:1016F00031FE0BE033A004F02DFE0121082002F0A2
:1017000097F9054615B129A004F024FE0020BDE795
:10171000C08700204D656D20626F7820696E697406
:10172000206661696C65640A000000004D656D20EB
:10173000626F7820696E6974206F6B210A00000067
:101740004D656D20626F7820616C6C6F63206661FF
:10175000696C6564210A00004D656D20626F782018
:10176000616C6C6F63206F6B0A0000002A705F6E03
:10177000756D203D2025640A00000000636C6561E2
:10178000722064617461206F6B0A202A705F6E752D
:101790006D203D2025640A004D656D20626F782024
:1017A00066726565206F6B210A0000005365742026
:1017B000496E73706563742053746174757320454A
:1017C00072720A004D656D20626F782066726565E1
:1017D000206661696C6564210A00000010B5002470
:1017E0001DA004F0B7FD052003F078FD044624B1E8
:1017F0001FA004F0AFFD012010BD23A004F0AAFD3E
:101800002948006803F0C6FE04466CB127A004F026
:10181000A1FD0121002002F00BF9044614B12AA019
:1018200004F098FD0120E7E72DA004F093FD0021CE
:10183000084602F0FDF8044614B123A004F08AFD26
:101840001948006803F08AFD20B12EA004F082FD43
:101850000120D1E70020CFE7456E74657220546106
:10186000736B48692048616E646C65722E0D0A00C6
:1018700044656C6179205461736B204661696C65C5
:10188000642E0D0A000000005461736B4869204CFF
:101890004F535F5461736B44656C617920446F6E84
:1018A000652E0D0A00000000D404002053757370EB
:1018B000656E64205461736B4869204661696C658C
:1018C000642E0D0A0000000053657420496E737089
:1018D00065637420537461747573204572720A00D5
:1018E0005461736B4869204C4F535F5461736B5262
:1018F0006573756D6520537563636573732E0D0A8B
:10190000000000005461736B48692064656C657465
:1019100065206661696C6564202E0A0010B518A008
:1019200004F018FD0A2003F0D9FC044624B11AA0E3
:1019300004F010FD012010BD1DA004F00BFD254892
:10194000006803F0CFFD04466CB123A004F002FD53
:101950000121002002F06CF8044614B124A004F028
:10196000F9FC0120E7E72848006803F0F7FC20B104
:1019700026A004F0EFFC0120DDE70020DBE70000FB
:10198000456E746572205461736B4C6F2048616EB4
:10199000646C65722E0D0A0044656C617920546197
:1019A000736B4C6F204661696C65642E0D0A0000F4
:1019B0005461736B4C6F204C4F535F5461736B5386
:1019C000757370656E6420537563636573732E0D54
:1019D0000A000000D4040020526573756D65205420
:1019E00061736B4C6F204661696C65642E0D0A0053
:1019F00053657420496E7370656374205374617409
:101A00007573204572720A00D80400205461736B0C
:101A10004C6F2064656C657465206661696C6564F3
:101A2000202E0A0010B58AB003F04CFD23A004F06C
:101A300091FC294801900420ADF8080027A00890E7
:101A40004FF4347007908020099001A9264803F0D4
:101A500031FB04463CB103F00FFE24A004F07AFCF5
:101A600001200AB010BD29A004F074FC3048019098
:101A70000520ADF808002FA008904FF434700790AF
:101A80008020099001A92E4803F014FB044674B18C
:101A90001548006803F062FC10B12AA004F05AFC5B
:101AA00003F0EAFD2DA004F055FC0120D9E733A096
:101AB00004F050FC03F0E0FD2046D2E74C4F535FAA
:101AC0005461736B4C6F636B282920537563636596
:101AD0007373210D0A000000DD17000848494748CC
:101AE0005F4E414D45000000D40400204578616DF3
:101AF000706C655F5461736B4869206372656174D3
:101B000065204661696C6564210D0A004578616D48
:101B1000706C655F5461736B4869206372656174B2
:101B2000652053756363657373210D0A000000001F
:101B30001D1900084C4F575F4E414D4500000000F5
:101B4000D80400205461736B48692064656C657427
:101B500065206661696C6564202E0A004578616DB8
:101B6000706C655F5461736B4C6F20637265617458
:101B700065204661696C6564210D0A004578616DD8
:101B8000706C655F5461736B4C6F20637265617438
:101B9000652053756363657373210D0A00000000AF
:101BA0002DE9F0414FF0000840A004F0D3FB0821DC
:101BB0004248006802F042FA044620464060006055
:101BC00000BF00BF4168814201D1012100E0002136
:101BD00029B93BA004F0BEFB0120BDE8F0813CA088
:101BE00004F0B8FB08213548006802F027FA0546E2
:101BF00008213248006802F021FA064608212F48E1
:101C0000006802F01BFA07462946204602F000F958
:101C10003146284602F0FCF82868A04202D030681D
:101C2000A84202D132A004F095FB00BF39462068DB
:101C300002F0EEF800BF3868B04202D131A004F0E3
:101C400089FB35A004F086FB00BFD5E900010860E0
:101C5000D5E90010486000206860286000BF294670
:101C60001648006802F040FA6068B0420ED12FA01A
:101C700004F070FB0021072001F0DAFE8046B8F185
:101C8000000F11D02FA004F065FB0DE033A004F08D
:101C900061FB0121072001F0CBFE8046B8F1000F67
:101CA00002D028A004F056FB002096E7696E697404
:101CB00069616C2E2E2E2E2E2E0A00009404002018
:101CC000696E697469616C206661696C65640A009B
:101CD0006E6F64652061646420616E642074616964
:101CE0006C206164642E2E2E2E2E2E0A0000000021
:101CF000616464206E6F64652073756363657373DC
:101D00000A000000616464207461696C207375636B
:101D1000636573730A00000064656C657465206E0A
:101D20006F64652E2E2E2E2E2E0A000064656C65C3
:101D30007465206E6F646520737563636573730AE1
:101D40000000000053657420496E73706563742051
:101D5000537461747573204572720A0064656C6512
:101D60007465206E6F6465206572726F720A000080
:101D70003EB50024012002AB3E4A002100904FF402
:101D80007A7003F08DF804461CB13BA004F0E2FA2F
:101D900002E03FA004F0DEFA012001AB424A014616
:101DA0000090642003F07CF804461CB13FA004F0CE
:101DB000D1FA02E043A004F0CDFABDF8080003F028
:101DC000F7F804461CB145A004F0C4FA02E049A0AB
:101DD00004F0C0FAC82003F081FABDF8080003F04F
:101DE00029F904461CB149A004F0B4FA02E04CA061
:101DF00004F0B0FABDF8080003F0DAF8044614B1B4
:101E000036A004F0A7FA4FF47A7003F067FABDF831
:101E1000080003F08BF804461CB146A004F09AFABF
:101E200002E04AA004F096FABDF8040003F0C0F8FE
:101E300004461CB14BA004F08DFA02E04FA004F060
:101E400089FA4FF47A7003F049FABDF8040003F000
:101E5000F1F8044614B14FA004F07CFABDF8040078
:101E600003F064F8044614B14FA004F073FA0020A4
:101E70003EBD0000195C0008637265617465205402
:101E8000696D657231206661696C65640A000000E5
:101E90006372656174652054696D65723120737574
:101EA00063636573730A0000695C000863726561AF
:101EB00074652054696D657232206661696C656471
:101EC0000A0000006372656174652054696D657273
:101ED0003220737563636573730A000073746172F3
:101EE000742054696D657231206661696C65640A9D
:101EF0000000000073746172742054696D65723162
:101F0000207375636573730A0000000073746F704B
:101F10002054696D657231206661696C65640A00E0
:101F200073746F702054696D6572312073756365C9
:101F300073730A0064656C6574652054696D65721D
:101F400031206661696C65640A00000064656C6537
:101F500074652054696D65723120737563657373A0
:101F60000A00000073746172742054696D657232E6
:101F7000206661696C65640A000000007374617218
:101F8000742054696D657232207375636365737371
:101F90000A00000073746F702054696D65723220FE
:101FA0006661696C65640A0064656C6574652054DB
:101FB000696D657232206661696C65640A000000B3
:101FC00070B5044600F062F906462546681C00B16B
:101FD0006D1C00BF00F05AF9801BA842FAD370BDF7
:101FE00010B50446B4F5005F0BD100BF05A004F0A6
:101FF000B1F9074907A004F0ADF911A004F0AAF95E
:1020000000BF10BD5B44454255475D200000000005
:10201000AD8100085B25735D204C6F73204B6579A3
:10202000204558544920496E746572757074696F03
:102030006E2068617070656E6564200D0A00000096
:102040000D0A000010B5044604480068204020B185
:10205000024804602046FFF7C3FF10BD140401408E
:1020600078B50346002200240020E5E001269640D2
:102070000D6805EA0604002C7DD04D68022D02D0C3
:102080004D68122D13D1D60803F1200555F826000E
:102090005507EE0E0F25B540A8435607F60E0D69FD
:1020A000B5402843D60803F1200545F826001868F6
:1020B00056000325B540A8430D7905F003055600E9
:1020C000B540284318604D68012D08D04D68022D99
:1020D00005D04D68112D02D04D68122D13D198688E
:1020E00056000325B540A8435600CD68B5402843A7
:1020F0009860586801259540A8430D79C5F30015EF
:102100009540284358600D7905F00305032D09D14A
:10211000D86A01259540A8430D79C5F3C0059540BF
:102120002843D862D86856000325B540A843560016
:102130008D68B5402843D8604D6805F08055B5F1ED
:10214000805F78D100BF3F4D2D6E45F001053D4EBB
:10215000356635462D6E05F00105009500BF00BFC0
:102160004FEAB635960855F8260095072E0F0F252D
:10217000B540A84300E05EE0B3F1904F01D10025E7
:102180001EE0314DAB4201D1012519E02F4DAB428C
:1021900001D1022514E02E4DAB4201D103250FE001
:1021A0002C4DAB4201D104250AE02B4DAB4201D1AD
:1021B000052505E0294DAB4201D1062500E00725A4
:1021C0009607360FB5402843254D960845F826005A
:1021D000244D2868A0434D6805F48035B5F5803F4F
:1021E00000D120431F4D28602D1D2868A0434D6855
:1021F00005F40035B5F5003F00D12043194D2D1DE4
:1022000028602D1D2868A0434D6805F48015B5F59C
:10221000801F00D12043134D083528602D1D2868EC
:10222000A0434D6805F40015B5F5001F00D120430B
:102230000C4D0C352860521C0D68D540002D7FF4E4
:1022400015AF78BD001002400004004800080048A7
:10225000000C004800100048001400480018004816
:102260000800014000040140024613690B400BB115
:10227000012000E00020704742694A4042617047F7
:102280000AB1816100E08162704700000148006886
:1022900070470000A005002002480068401C01496A
:1022A00008607047A005002070B504460748006824
:1022B0004FF47A71B0FBF1F5284600F075FF00226B
:1022C0002146501E00F011F8002070BD9C05002032
:1022D00000BF00F01F02012191404209920002F16B
:1022E000E022C2F8001100BF70472DE9F05F804680
:1022F0000D461646002703F045FA074639462A469A
:10230000334601F00700C0F1070ABAF1040F02D901
:102310004FF0040A01E0C0F1070AD14600F1040AB7
:10232000BAF1070F02D24FF0000A01E0A0F1030A50
:10233000D4464FF0010A0AFA09FAAAF1010A0AEA98
:10234000020A0AFA0CFA4FF0010B0BFA0CFBABF184
:10235000010B0BEA030B4AEA0B042146404603F04B
:1023600019FA00F000B830BCBDE8C09F0248006810
:1023700000F4C06070470000007000402DE9F84391
:102380000446002600270025A846208800F40060A7
:10239000B0F5006F30D1606E80B1B0F5800F13D012
:1023A000B0F5000F03D0B0F5400F15D113E0FA4897
:1023B000C06840F48030F849C8600FE00021201D5B
:1023C00003F0FCF9054609E0002104F1200003F0C8
:1023D000BBFA054602E001E0012500BF00BF55B988
:1023E000ED488830006820F44000616E0843EA49F7
:1023F000C1F8880000E0A846208800F48050B0F5BD
:10240000805F30D1A06E80B1B0F1807F13D0B0F189
:10241000007F03D0B0F1407F15D113E0DE48C068E3
:1024200040F48030DC49C8600FE00021201D03F03B
:10243000C5F9054609E0002104F1200003F084FA03
:10244000054602E001E0012500BF00BF55B9D248B2
:102450008830006820F04070A16E0843CE49C1F872
:10246000880000E0A846206800F40030B0F5003F86
:1024700076D14FF00009C848806D00F0805078B9DF
:1024800000BFC548806D40F08050C349886508464C
:10249000806D00F08050009000BF00BF4FF0010938
:1024A000BE48006840F48070BC490860FFF7EEFE4B
:1024B000074606E0FFF7EAFEC01B022801D9032504
:1024C00005E0B648006800F480700028F2D000BF34
:1024D00085BBB1489030006800F44076D6B1D4F89E
:1024E0008400B04216D0AC489030006820F44076AA
:1024F000A948D0F8900040F48030A749C1F8900076
:102500000846D0F8900020F48030C1F890000846CA
:10251000C0F8906006F00100A8B1FFF7B7FE0746CB
:1025200009E0FFF7B3FEC01B41F28831884202D9AF
:10253000032507E017E098489030006800F002009B
:102540000028EED000BF65B993489030006820F4B1
:102550004070D4F8841008438F49C1F8900003E01C
:102560000CE0A84600E0A846B9F1010F05D18A4861
:10257000806D20F080508849886500BF207800F089
:10258000010048B184488830006820F00300A16B46
:1025900008438149C1F88800207800F00200022831
:1025A00009D17D488830006820F00C00E16B0843B9
:1025B0007949C1F88800207800F00400042809D186
:1025C00075488830006820F03000216C084372495B
:1025D000C1F88800207800F00800082809D16E486A
:1025E0008830006820F0C000616C08436A49C1F877
:1025F0008800207800F01000102809D16648883043
:10260000006820F44070A16C08436349C1F8880059
:10261000207800F02000202809D15F488830006829
:1026200020F44060E16C08435B49C1F888002088D1
:1026300000F40070B0F5007F09D157488830006879
:1026400020F44020E16D08435349C1F888002088F8
:1026500000F48060B0F5806F09D14F488830006881
:1026600020F44010216E08434B49C1F888002078BF
:1026700000F04000402809D147488830006820F425
:102680004050216D08434449C1F88800207800F08B
:102690008000802809D140488830006820F44040FC
:1026A000616D08433C49C1F88800208800F48070BF
:1026B000B0F5807F09D138488830006820F4403078
:1026C000A16D08433449C1F88800208800F4005007
:1026D000B0F5005F1FD130488830006820F04060BE
:1026E000E16E08432C4988310860E06EB0F1006F5C
:1026F00006D12948C06840F480102749C8600AE024
:10270000E06EB0F1806F06D10121201D03F056F874
:10271000054605B1A846206800F40020B0F5002F5A
:102720001FD11D488830006820F04060216F0843A9
:10273000194988310860206FB0F1006F06D1164842
:10274000C06840F480101449C8600AE0206FB0F1FE
:10275000806F06D10121201D03F030F8054605B138
:10276000A846206800F48020B0F5802F23D10A48C5
:102770008830006820F04060616F08430649883166
:102780000860606FB0F1006F0AD10348C06840F480
:1027900080100149C8600EE0001002400070004047
:1027A000606FB0F1806F06D10121201D03F006F8A3
:1027B000054605B1A846208800F48040B0F5804F5A
:1027C0001FD12248006820F04050A16F08431F49E4
:1027D0000860A06FB0F1805F07D10221201D02F0D8
:1027E000EDFF05466DB1A8460BE0A06FB0F1005FAC
:1027F00007D1022104F1200003F0A6F8054605B137
:10280000A846208800F40040B0F5004F09D10F48D9
:10281000006820F08040E16F08430C498839C1F816
:102820008800206800F48030B0F5803F0AD1074866
:10283000006820F00040D4F880100843034988392C
:10284000C1F888004046BDE8F883000088100240C7
:1028500070B504460D4600267048006800F0070079
:10286000A8420ED26D48006820F0070028436B494B
:1028700008600846006800F00700A84201D0012067
:1028800070BD207800F00100002879D0606803282E
:1028900006D16348006800F00070D8B90120EFE766
:1028A0006068022806D15E48006800F4003088B9EC
:1028B0000120E5E7606830B95948006800F002007F
:1028C00040B90120DCE75648006800F4806008B990
:1028D0000120D5E75248806820F003006168084372
:1028E0004F498860FFF7D2FC06466068032810D184
:1028F00008E0FFF7CBFC801B41F28831884201D908
:102900000320BDE74648806800F00C000C28F0D199
:1029100036E06068022810D108E0FFF7B7FC801BA2
:1029200041F28831884201D90320A9E73C488068F8
:1029300000F00C000828F0D122E0606880B908E0BF
:10294000FFF7A4FC801B41F28831884201D90320A3
:1029500096E73348806800F00C000028F0D10FE0C3
:1029600008E0FFF793FC801B41F28831884201D9CF
:10297000032085E72A48806800F00C000428F0D185
:10298000207800F00200022807D12548806820F056
:10299000F000A1680843224988602048006800F0E0
:1029A0000700A8420ED91D48006820F00700284300
:1029B0001A4908600846006800F00700A84201D0E4
:1029C00001205DE7207800F00400042807D11448B6
:1029D000806820F4E060E16808431149886020784D
:1029E00000F00800082808D10D48806820F46050E5
:1029F000216940EAC1000A49886000F03DF80849B1
:102A00008968C1F30311074A515CC8400649086050
:102A10000F20FFF749FC002032E7000000200240B1
:102A200000100240188200089C0500200148006840
:102A3000704700009C05002000B5FFF7F7FF044930
:102A40008968C1F30221034A515CC84000BD0000FF
:102A5000001002402882000800B5FFF7E7FF044994
:102A60008968C1F3C221034A515CC84000BD00001F
:102A70000010024028820008F0B500210023002445
:102A80000225022200203B4EB66806F00C065EB11D
:102A9000384EB66806F00C060C2E1ED1354EF66880
:102AA00006F00306012E18D1324E366806F00806ED
:102AB0002EB9304E94363668C6F3032103E02D4E0E
:102AC0003668C6F303112C4E56F82110294EB6680D
:102AD00006F00C0686B908460EE0264EB66806F0EB
:102AE0000C06042E01D1254806E0224EB66806F0F9
:102AF0000C06082E00D122481E4EB66806F00C06C1
:102B00000C2E36D11B4EF66806F00304194EF668FB
:102B1000C6F30216721C012C19D0022C02D0032C11
:102B200014D109E0154EB6FBF2F6124FFF68C7F359
:102B3000062706FB07F313E0114EB6FBF2F60D4F26
:102B4000FF68C7F3062706FB07F309E000BFB1FBE8
:102B5000F2F6084FFF68C7F3062706FB07F300BF2E
:102B600000BF044EF668C6F34166761C7500B3FBE1
:102B7000F5F0F0BD00100240308200080024F4009F
:102B800000127A00F8B504460025207800F0100005
:102B900010286ED1F848806800F00C00002869D138
:102BA000F548006800F0020018B1A06908B90120DA
:102BB000F8BDF148216A006800F0080020B1EE4835
:102BC000006800F0F00005E0EB489430006800F485
:102BD0007060000981421FD9206A02F067FF08B1C6
:102BE0000120E5E700BFE448006840F00800E24942
:102BF00008600846006820F0F000216A0843DE49BA
:102C0000086000BF0846406820F47F40E16940EA60
:102C10000120D94948601EE000BFD748006840F055
:102C20000800D54908600846006820F0F000216AD5
:102C30000843D149086000BF0846406820F47F403F
:102C4000E16940EA0120CC494860206A02F02EFF89
:102C500008B10120ACE7FFF70FFFC7498968C1F34E
:102C60000311C64A515CC840C54908600F20FFF7F0
:102C70001BFB4AE0A06980B3BF48006840F0010038
:102C8000BD490860FFF702FB054606E0FFF7FEFAC4
:102C9000401B022801D903208AE7B748006800F0EA
:102CA00002000028F2D000BFB348006840F00800DE
:102CB000B14908600846006820F0F000216A084326
:102CC000AD49086000BF0846406820F47F40E169D4
:102CD00040EA0120A849486017E0FFE7A6480068DD
:102CE00020F00100A4490860FFF7D0FA054606E08D
:102CF000FFF7CCFA401B022801D9032058E79E4871
:102D0000006800F002000028F2D1207800F00100F5
:102D1000002868D09848806800F00C0008280BD084
:102D20009548806800F00C000C280ED19248C068CD
:102D300000F00300032808D18F48006800F4003039
:102D400088B3606878BB012032E700BF6068B0F5E7
:102D5000803F06D18848006840F48030864908608A
:102D60001AE06068B0F5A02F0BD18348006840F4EA
:102D70008020814908600846006840F4803008607F
:102D80000AE07D48006820F480307B4908600846EE
:102D9000006820F48020086000BF606890B1FFF7F1
:102DA00075FA054607E01EE0FFF770FA401B64283D
:102DB00001D90320FCE67048006800F400300028C8
:102DC000F2D010E0FFF762FA054606E0FFF75EFA80
:102DD000401B642801D90320EAE66748006800F434
:102DE00000300028F2D1207800F0020002285ED1E5
:102DF0006148806800F00C0004280BD05E488068B1
:102E000000F00C000C2818D15B48C06800F00300EB
:102E1000022812D15848006800F4806018B1E068B8
:102E200008B90120C4E65448406820F0F850217CDD
:102E300040EA01605049486039E0E06800B34E481C
:102E4000006840F480704C490860FFF71FFA05469F
:102E500006E0FFF71BFA401B022801D90320A7E672
:102E60004548006800F480600028F2D0424840687D
:102E700020F0F850217C40EA01603F49486016E0AC
:102E80003D48006820F480703B490860FFF7FEF978
:102E9000054606E0FFF7FAF9401B022801D9032096
:102EA00086E63548006800F480600028F2D120787A
:102EB00000F00800082836D16069D0B12E4894305F
:102EC000006840F001002C49C1F89400FFF7DEF9DA
:102ED000054606E0FFF7DAF9401B022801D9032076
:102EE00066E625489430006800F002000028F1D022
:102EF00019E021489430006820F001001E49C1F813
:102F00009400FFF7C3F9054606E0FFF7BFF9401B41
:102F1000022801D903204BE617489430006800F0DE
:102F200002000028F1D1207800F0040004286ED1BE
:102F300000261148806D00F0805070B900BF0E4827
:102F4000806D40F080500C4988650846806D00F027
:102F50008050009000BF00BF01260A48006800F4BE
:102F60008070F0B90748006840F480700549086037
:102F7000FFF78CF905460EE00010024018820008A9
:102F80009C05002000700040FFF780F9401B0228DC
:102F900001D903200CE68148006800F48070002805
:102FA000F2D000BFA068012808D17D48006840F039
:102FB00001007B499039C1F8900021E0A068052804
:102FC0000FD17748006840F0040075499039C1F886
:102FD00090000846D0F8900040F00100C1F8900041
:102FE0000EE06F48006820F001006D499039C1F88B
:102FF00090000846D0F8900020F00400C1F890003E
:1030000000BFA068A0B1FFF741F9054609E02DE037
:10301000FFF73CF9401B41F28831884201D9032077
:10302000C6E55F48006800F002000028F0D012E01A
:10303000FFF72CF9054608E0FFF728F9401B41F29D
:103040008831884201D90320B2E55548006800F074
:1030500002000028F0D1012E07D151489038806D30
:1030600020F080504E499039886500BFA06AE8B3CF
:103070004B489038806800F00C000C2879D0A06A8A
:10308000022853D146489038006820F080704449A7
:1030900090390860FFF7FAF8054606E0FFF7F6F802
:1030A000401B022801D9032082E53D489038006882
:1030B00000F000700028F1D1206B401E0101606B10
:1030C00041EA0021A06B000941EA4040E16A08435F
:1030D000A18F0122C2EB510140EA41514020005D25
:1030E000C2EB500041EA40602D4900E053E09039C6
:1030F000C8600846006840F0807008600846C068F4
:1031000040F08070C860FFF7C1F8054606E0FFF7A1
:10311000BDF8401B022801D9032049E5204890381A
:10312000006800F000700028F1D034E01C489038AE
:10313000006820F080701A499039086008460068DD
:1031400000F0006048B90846006800F0005020B95F
:103150000846C06820F00300C86011489038C06875
:10316000104908400E499039C860FFF78FF80546AE
:1031700007E00EE0FFF78AF8401B022801D9032080
:1031800016E507489038006800F000700028F1D17B
:1031900001E001200CE500200AE50000007000407D
:1031A00090100240FFFFEEFE70B504462546681EF3
:1031B000B0F1807F01D301200FE0681E4FF0E021C5
:1031C00048610F214FF0FF3002F0E4FA00204FF089
:1031D000E021886107200861002070BD10B5044619
:1031E0000CB9012010BDA06900B100E000BF94F847
:1031F000710028B9002084F87000204600F02AF8F9
:10320000242084F871002068006820F00100216803
:103210000860204602F01CFE012800D1E2E7606A47
:1032200010B1204602F05EFD2068406820F4904016
:10323000216848602068806820F02A002168886042
:103240002068006840F0010021680860204602F014
:10325000C5FDC7E710B5A8B0044600BF2448C06C40
:1032600040F001002249C8640846C06C00F001002B
:10327000009000BF00BF00BF0846C06C40F00100D6
:10328000C8640846C06C00F00100009000BF00BF99
:10329000082001904020129001A8FFF76FF800BFAE
:1032A0001348006E40F48040114908660846006EDD
:1032B00000F48040009000BF00BF4815239002201A
:1032C000249001202590022026900720279023A9F2
:1032D0004FF09040FEF7C4FE4FF48060239007202B
:1032E000279023A94FF09040FEF7BAFE28B010BDFA
:1032F000001002402DE9F84304460D4616461F46CD
:103300004FF0000994F87100202855D105B116B985
:103310000120BDE8F88300BF94F87000012801D1B6
:103320000220F6E7012084F8700000BF00206067EB
:10333000212084F87100FEF7A9FF8146A4F85060AF
:10334000A4F8526021E04B460022802120460097DD
:1033500002F0C7FF08B10320DBE7A068B0F5805F8B
:103360000AD1206940B9A846B8F80000C0F30800A7
:1033700021680885AD1C03E015F8010B216808855C
:10338000B4F85200401EA4F85200B4F852000028CD
:10339000D9D14B46002240212046009702F0A1FFE0
:1033A00008B10320B5E7202084F8710000BF002099
:1033B00084F8700000BFACE70220AAE700BFFEE778
:1033C00002465018401E904204D95018401E4B1E11
:1033D00098437047481E22EA0000FAE710B58AB009
:1033E000242101A8FCF7A9FF0F4801904FF4A06029
:1033F00007900EA008900C20ADF8080001A90E4817
:1034000001F058FE04466CB100BF0CA002F0A2FF10
:103410000C490DA002F09EFF15A002F09BFF00BF1B
:103420000AB010BD00BFFBE775340008426F61723F
:103430006444656D6F000000980500205B455252A2
:103440005D200000008200085B25735D20426F61F3
:1034500072644578616D706C65207461736B206374
:103460007265617465204552524F522021212120FE
:103470000D0A00000FE00121022000F066F84FF471
:10348000FA7001F02BFF0021022000F05EF84FF4EB
:10349000FA7001F023FFEEE74FF47A50704710B551
:1034A000024614462046002305E0014649600960B3
:1034B00000BF5B1C08301B2BF7D310BD2DE9F0417A
:1034C00005460E462F46304600F016FD04461E2CDB
:1034D00002D90020BDE8F081042C00D80424201F6C
:1034E00007EBC000F6E7000010B504F04DFC044601
:1034F00054B100BF05A002F02DFF06A002F02AFF84
:1035000009A002F027FF00BF204610BD5B455252C4
:103510005D2000006F735469636B53746172742093
:103520006572726F720A00000D0A000070B50546E0
:10353000FF240020FDF712FA0446204670BD10B5A6
:1035400001210020FDF71AFA10BD70B505460C46A2
:10355000022D09D1012C03D10020FDF7DFF902E093
:103560000020FDF7CBF900E000BF00BF70BD10B533
:103570000020FDF793F910BD10B500F005F8FFF736
:10358000F6FFFFF7DCFF10BD10B50B480B490860D4
:103590004FF4E1304860002108488160C16001615A
:1035A00081610C2141610021C161FFF717FE08B163
:1035B000FDF743FA10BD000000380140BC86002032
:1035C00001B541F28833012269460348FFF792FEB4
:1035D00008B1FDF732FA08BDBC86002070B504467C
:1035E0000D460CB9064870BDFCF705FE064620687E
:1035F000284020603046FCF706FE0020F3E700007C
:10360000061C0002014609B9044870470020086002
:10361000081D4060006000BF0020F6E7061C0002A5
:103620002DE9F04104460D4616460027FCF7E3FD60
:10363000804606F0020030B12068284058B120686A
:1036400000EA050707E035B120682840A84202D10A
:10365000206800EA05072FB106F0010010B12068CC
:10366000B84320604046FCF7CEFD3846BDE8F08107
:103670002DE9F05F8146884616461F464FF0000A46
:10368000B9F1000F02D14D4800F0A0B8B8F1000F19
:1036900002D14A48001FF7E708F0007010B1474810
:1036A000801FF1E706F0020010B106F0040028B90F
:1036B00026F0070010B906F0060010B93F48801E3A
:1036C000E2E73F48006810B13C48C01EDCE7FCF769
:1036D00092FD8346324641464846FFF7A1FF8246A7
:1036E000BAF1000F64D127B95846FCF78CFD50465B
:1036F000CAE73448008828B15846FCF784FD2F48B3
:10370000401EC1E73048046804F13C0000F0F2FFBD
:10371000A08820F00400A08004F13C05A08840F0BF
:103720000800A080C4F85C80266600BFD9F80400B9
:1037300041686960286041680D60456000BF00BF56
:103740007FB1781C68B1A08840F04000A080394665
:10375000204604F03FF85846FCF755FD01F0F2F919
:1037600008E0A08820F04000A0805846FCF74BFD00
:1037700001F0E8F9207900F0400060B1FCF73BFD72
:103780008346A08820F04000A0805846FCF73BFD0F
:103790000A48401F78E7FCF72EFD83463246414633
:1037A0004846FFF73DFF82465846FCF72CFD02E0F5
:1037B0005846FCF728FD504666E70000061C00024C
:1037C00090040020200400201804002030BCBDE834
:1037D000C09F00002DE9F04705460E460027B84679
:1037E00015B93948BDE8F08706F0007010B13648C9
:1037F000801FF7E7FCF7FFFC81462868304328600C
:10380000281D4168814201D1012100E000210029E9
:1038100055D1A868A0F13C043FE0206CA0F13C0722
:1038200094F8600000F0020010B1E06D304050B933
:1038300094F8600000F0040070B3E06D296808405F
:10384000E16D884228D14FF0010800BFD4E90F0193
:103850000860D4E90F10486000202064E06300BFD6
:10386000A08820F00800A080207900F0400030B14E
:10387000204604F0C1FAA08820F04000A080207902
:1038800000F0020040B9A08840F00400A080E18868
:1038900004F13C0000F03AFF3C4604F13C00291DD5
:1038A0008842BAD1B8F1010F05D14846FCF7ABFC0C
:1038B00001F048F906E04846FCF7A5FC02E048465E
:1038C000FCF7A1FC00208DE7061C00022DE9F04169
:1038D00005460027FF260A2D06DB29462EA002F00A
:1038E00039FD0120BDE8F081002449E0314800EBBA
:1038F00004100078A84242D12E4800EB0410406822
:1039000028B929462CA002F025FD0120EAE7294923
:1039100001EB041148688047074600BF254800EBCB
:103920000410407850B94FB9224800EB041000F160
:1039300008012DA002F00EFD002610E01D4800EB4E
:103940000410407801280AD101261A4800EB04101F
:1039500000F108012A4802682AA002F0FBFC64205A
:1039600001F0BCFC134800EB04104078FF28D5D0D0
:10397000104800EB04104078B042CFD102E0641C44
:103980000A2CB3D300BF0A2C01D10120AAE70EB143
:103990000120A7E70020A5E70D0A496E7370656353
:1039A000744944203D205B25645D204572722E0DD4
:1039B0000A000000F8040020496E737065637449C2
:1039C00044203D205B25645D204572722C496E7356
:1039D0007065637466756E63206973204E554C4C38
:1039E0002E0D0A0D0A000000496E73706563742085
:1039F000257320737563636573730D0A0D0A0000E8
:103A0000F0040020496E737065637420257320658F
:103A100072726F722C67496E73706563744572724F
:103A2000436E74203D205B25645D0D0A0D0A000085
:103A300070B505460E4600240A2D05DB294610A068
:103A400002F088FC012070BD00240BE0134800EB5D
:103A500004100078A84204D1104800EB041046700E
:103A600002E0641C0A2CF1D300BF0A2C05D12946C0
:103A70000BA002F06FFC0120E5E70020E3E7000067
:103A80000D0A496E73706563744944203D205B25BF
:103A9000645D204572722E0D0A000000F8040020BB
:103AA0000D0A496E73706563744944203D205B259F
:103AB000645D206E6F742066696E642E0D0A0000CE
:103AC00010B58AB0242101A8FCF737FC0F480190FB
:103AD0004FF4A06007900EA008900B20ADF80800EE
:103AE00001A90E4801F0E6FA04466CB100BF0CA033
:103AF00002F030FC0C490DA002F02CFC15A002F0E5
:103B000029FC00BF0AB010BD00BFFBE7393C00082C
:103B1000496E737065637454736B0000F404002085
:103B20005B4552525D200000EE8100085B25735D0D
:103B300020496E7370656374207461736B206372C7
:103B400065617465204552524F5220212121200D7C
:103B50000A0000000D0A000070B505460C46284614
:103B6000FFF7E4FC00282DD1322001F0B7FB2846F6
:103B7000FFF7DCFCB0B901212046FFF7E6FC00BFEF
:103B800019A002F0E7FB1A491AA002F0E3FB22A0F9
:103B900002F0E0FB00BF00BF2846FFF7C7FC00288B
:103BA000FAD01FE000212046FFF7CFFC00BF0EA097
:103BB00002F0D0FB0E4919A002F0CCFB16A002F0D7
:103BC000C9FB0FE000212046FFF7BFFC00BF06A0A5
:103BD00002F0C0FB064911A002F0BCFB0EA002F0EF
:103BE000B9FB00BF70BD00005B494E464F5D200031
:103BF000C48100085B25735D2055736572204B6599
:103C00007920686173206265656E207072657373D8
:103C10006564200D0A0000000D0A00005B25735D3D
:103C20002055736572204B6579206973206C6F6F26
:103C3000736564200D0A00000025002027490860F4
:103C400000BF27A002F086FB284929A002F082FBD2
:103C50002EA002F07FFB00BF002418E0E0B2FFF7C7
:103C600035FE054695B11D480068401C1B4908609B
:103C700000BF27A002F06EFB18481C49026826A06E
:103C800002F068FB21A002F065FB00BF641C0A2C57
:103C9000E4DB00BF12A002F05DFB1048134902688C
:103CA00029A002F057FB19A002F054FB00BF00BF8F
:103CB00031A002F04FFB0D4931A002F04BFB13A0E5
:103CC00002F048FB00BF07E002210120FFF744FF9C
:103CD0004FF47A7001F002FBF6E70000F0040020D8
:103CE0005B44454255475D2000000000DA81000832
:103CF0005B25735D204C6F7320496E737065637430
:103D00002073746172742E2E2E0D0A000D0A0000AD
:103D10005B4552525D2000005B25735D20496E7348
:103D200070656374204552524F5220212121206733
:103D3000496E7370656374457272436E74203D20E2
:103D40005B25645D0D0A00005B25735D20496E7381
:103D50007065637420636F6D706C657465642C6747
:103D6000496E7370656374457272436E74203D20B2
:103D70005B25645D0D0A00005B494E464F5D2000E7
:103D80005B25735D204C6F73204B657920657861EE
:103D90006D706C653A20706C65617365207072653A
:103DA0007373207468652055736572204B65792E96
:103DB0002E2E0D0A0000000010B502F0CFFF0446C1
:103DC0000CB1012010BD0020FCE742684A60086089
:103DD000426811604160704742684A60086042680A
:103DE00011604160704742684A6008604268116033
:103DF0004160704742684A600860426811604160F3
:103E0000704742684A6008604268116041607047CC
:103E100042684A6008604268116041607047D0E9BA
:103E200000121160D0E90021516000214160016061
:103E30007047D0E900121160D0E9002151600021E3
:103E4000416001607047D0E900121160D0E90021A3
:103E500051600021416001607047D0E9001211609B
:103E6000D0E90021516000214160016070470146A6
:103E70004868884201D1012070470020FCE70146D4
:103E80004868884201D1012070470020FCE70146C4
:103E90004868884201D1012070470020FCE70146B4
:103EA0004868884201D1012070470020FCE740604B
:103EB000006070474060006070474060006070477D
:103EC00040600060704770B504460D462946206882
:103ED000FFF77BFF70BD70B504460D46294620688C
:103EE000FFF77AFF70BD70B504460D46294620687D
:103EF000FFF780FF70BD0000014601F0004010B1E7
:103F00006FF0704070474C480840002847D001F0DF
:103F1000FE40F8B101F0E04058B101F0804008B136
:103F20001E20EFE701F0005008B11D20EAE71C2039
:103F3000E8E701F0406030B101F0006008B11B20FB
:103F4000E0E71A20DEE701F0007008B11920D9E798
:103F50001820D7E701F4700080B101F4400030B1BF
:103F600001F4000008B11720CCE71620CAE701F4DD
:103F7000001008B11520C5E71420C3E701F4402064
:103F800030B101F4002008B11320BBE71220B9E7DB
:103F900001F4003008B11120B4E71020B2E701F4B9
:103FA0007F4020B301F4704080B101F4404030B153
:103FB00001F4004008B10F20A4E70E20A2E701F4AD
:103FC000005008B10D209DE70C209BE701F44060F4
:103FD00030B101F4006008B10B2093E70A2091E7AB
:103FE00001F4007008B109208CE708208AE701F08D
:103FF000F00080B101F0C00030B101F0800008B1E4
:1040000007207FE706207DE701F0200008B10520AA
:1040100078E7042076E701F00C0030B101F00800E9
:1040200008B103206EE702206CE701F0020008B13E
:10403000012067E7002065E70000FF7F2DE9F041E0
:1040400005460C460026FCF7D6F8074600BF05B12A
:1040500004B909E004F0004000B105E0214628461B
:1040600002F014FF064600BF00BF3846FCF7CBF84D
:104070003046BDE8F0812DE9F05F80460F461446DA
:104080004FF00009CA4600250026FCF7B4F8834625
:1040900000BFB8F1000F00D007B91BE0381900F1DC
:1040A000040909F0004000B114E04946404602F01E
:1040B000EDFE05462819401E611E20EA0106B542A4
:1040C00000D107E0A6EB050A4AF0804A46F804ACA6
:1040D000354600BF00BF5846FCF795F8284600F06B
:1040E00000B830BCBDE8C09F2DE9F04705460C463E
:1040F00001270026FCF77FF8814600BFB04605B1D6
:1041000004B914E054F8046C06F0804010B126F0B5
:104110008046A41BA4F110084146284602F018FF6F
:1041200007461FB92946404602F08AFF00BF00BF7C
:104130004846FCF768F83846BDE8F0872DE9F047B7
:1041400004468846002500270026A94614B1B8F188
:10415000FF0F03D84FF0FF30BDE8F087FCF74BF8B6
:104160008246264634463660C6F8048004F10800CC
:10417000FFF795F904F1E005281BA8EB00001038C3
:10418000E8600020A86004F10800E968FFF796F9EC
:104190008146B9F1000F13D100BF19A002F0DAF87F
:1041A0004FF4F972184919A002F0D4F819A002F0DE
:1041B000D1F800BF5046FCF726F84FF0FF30CBE7B0
:1041C00000BF2946D9F80000FFF71BFE00BF04EB33
:1041D0000800A0F11007002038607860B860F8602F
:1041E000BD601020F860F86840F00040F860384684
:1041F00002F0DAFF5046FCF706F80020ACE70000BA
:104200005B4552525D200000868100082573202501
:10421000640A00000D0A00002DE9F04105462F4612
:104220000026002415B90020BDE8F081FBF7E3FF6C
:10423000804607F10806306820B134682068306095
:10424000044820604046FBF7DEFF0CB90020EBE796
:10425000201DE9E7A55A5AA570B504460D46264625
:1042600004B105B970BD3068011F2846FCF765F838
:1042700000BFF7E72DE9F04705460E462C4601271B
:1042800005B116B90120BDE8F087FBF7B4FF804601
:1042900000BF311F20460A46D0F800C0BCF1000F15
:1042A00002D14FF0010C25E000F10C0CA2EB0C0345
:1042B000D0F800C0B3FBFCF90CFB193CBCF1000FBB
:1042C00002D04FF0010C15E0D0F800C0B3FBFCFCAD
:1042D000D0F80490CC4502D34FF0010C0AE0DFF88F
:1042E0003490D2F800C0CC4502D04FF0010C01E070
:1042F0004FF0000CBCF1000F00D004E0A068086093
:10430000A160002700BF00BF4046FBF77CFF384696
:10431000B9E70000A55A5AA52DE9F04706460F4611
:1043200090463446002516B90120BDE8F087B8F163
:10433000000F01D10120F8E70C2F01D20120F4E792
:10434000FBF759FF824608F1070020F003002060C8
:10435000A7F10C002168B0FBF1F06060606820B943
:104360005046FBF750FF0120DFE704F10C05A56084
:104370004FF0000905E02068284428602D6809F105
:1043800001096068401E4845F5D800202860504665
:10439000FBF739FF0020C8E72DE9F041054615B9C4
:1043A0001448BDE8F081FBF726FF07461248FFF7E7
:1043B00066FD28B13846FBF726FF0E48401CF0E7A3
:1043C0000D4846683046FFF734FDA6F1080400208A
:1043D0006080012020700020A082206104F108008C
:1043E000FFF768FD606828603846FBF70CFF002087
:1043F000D7E70000021D00027404002070B50546D6
:1044000005EB45001449096801EBC004FBF7F3FE16
:1044100006460A2D01D2207820B93046FBF7F3FE7C
:104420000E4870BD04F10800FFF729FD08B160884F
:1044300028B13046FBF7E7FE08480830F1E704F101
:1044400008010748FFF7C8FC002020703046FBF742
:10445000DAFE0020E5E7000070040020011D0002E4
:10446000740400202DE9F04706460F4606EB46008F
:104470004F49096801EBC005FBF7BDFE82460A2ED5
:1044800001D2287828B95046FBF7BDFE4948BDE85F
:10449000F0874948006828B15046FBF7B4FE45480C
:1044A000001DF4E745480468688850B96888401CD6
:1044B00068802C61E088A8825046FBF7A4FE0020AB
:1044C000E5E72869A04207D16888401C688050460B
:1044D000FBF799FE0020DAE72FB95046FBF793FE71
:1044E0003448C01CD3E73648008878B1DFF8C48070
:1044F00008F1050800BF33A001F02CFF33A001F044
:1045000029FF3BA001F026FF00BF4AE004F13C0078
:1045100000F0F0F8A08820F00400A080656204F1AB
:104520003C09A08840F00800A0802869C088E18884
:10453000884203DDE188286903F0F0FA494605F175
:104540000800FFF7C8FC781C68B1A08840F0400064
:10455000A0803946204603F03DF95046FBF753FE54
:1045600000F0F0FA08E0A08820F04000A08050465B
:10457000FBF749FE00F0E6FA207900F0400070B148
:10458000FBF739FE8246A08820F04000A08050460C
:10459000FBF739FEDFF81C8008F1060805E0002073
:1045A00075E75046FBF72FFE00BF40466FE700005F
:1045B00070040020011D0002900400201804002057
:1045C000200400205B4552525D2000002121214C37
:1045D0004F535F4552524E4F5F4D55585F50454EB9
:1045E000445F494E5F4C4F434B2121210A0000009C
:1045F0000D0A00002DE9F041064606EB4600394958
:10460000096801EBC004FBF7F6FD80460A2E01D2D3
:10461000207828B94046FBF7F6FD3348BDE8F08125
:104620003248006828B14046FBF7EDFD2E48001DDA
:10463000F4E72F480768608810B12069B84204D0B9
:104640004046FBF7E0FD2848E8E76088401E80B25E
:10465000608020B14046FBF7D6FD0020DEE72069F0
:10466000C088A18A884203D0A18A206903F056FA43
:1046700004F10800FFF703FC70BBE068A0F13C0503
:10468000E068FFF7D6FBA88820F00800A88028790A
:1046900000F0400030B1284603F0AEFBA88820F0BF
:1046A0004000A880012060802561E888A082002069
:1046B0006862287900F0020040B9A88840F0040040
:1046C000A880E98805F13C0000F020F84046FBF79F
:1046D0009AFD00F037FA02E04046FBF794FD002017
:1046E0009CE7000070040020011D000290040020DF
:1046F0001804002000BFD0E900121160D0E90021A9
:10470000516000214160016000BF704710B50A464A
:104710000649096801EBC20319684C6844600160EE
:104720004C682060486000BF00BF10BD000400203E
:10473000014600200022074B1B6803EBC1035A68A7
:1047400001E0401C5268034B1B6803EBC10393421A
:10475000F7D170470004002000210020014612E03C
:104760000B4A126802EBC1004268824201D1012269
:1047700000E000222AB90648006800EBC10040684A
:104780007047481C01462029EAD30020F8E70000C2
:10479000000400202DE9F84F81460C4615469A4644
:1047A0000A9E15B9194800F033B84FF6FB708642DF
:1047B00002DD16480938F6E704B116B91348401C63
:1047C000F1E7FBF718FD8046301D82B26B462946A3
:1047D000204602F0A5FD074627B14046FBF713FD32
:1047E0003846E0E700981430FFF767FB00981C306C
:1047F000FFF763FB00982430FFF75FFB0098C4814C
:104800004046FBF700FD0020CDE700000C0600024B
:1048100018BCBDE8E08F00002DE9F0410646771E88
:104820000A2F02D32548BDE8F081FBF7E4FC80465F
:1048300007EB470000EBC7002149096801EB800442
:10484000A08818B900BF1D4D6D1D31E004F11C009A
:10485000FFF71DFB18B900BF184DED1C28E004F14F
:104860001400FFF714FB18B900BF144DED1C1FE036
:1048700004F12400FFF70BFB18B900BF0F4DED1C2E
:1048800016E0E089218A0844E188884203D000BF0D
:104890000A4DAD1D0CE00B4821680068FFF724FCB1
:1048A000054615B100BF00BF02E00020A08000BF98
:1048B0004046FBF7A8FC2846B5E7000005060002C5
:1048C0007C040020940400202DE9FC5F80460F4604
:1048D00091461E4600200090A8F1010BBBF10A0F83
:1048E00002D3404800F088B817B93E48401CF9E7A9
:1048F000B9F1000F02D13B48801CF3E72EB13A48D2
:10490000006810B137480A30ECE7FBF774FC0190FF
:104910000BEB4B0000EBCB003449096801EB800442
:10492000A08820B900BF2F480E30009054E0208AA4
:1049300050BB26B900BF2B480F3000904CE02C48EC
:10494000008820B100BF27480838009044E029487B
:104950000568324604F11C01284602F035FD019835
:10496000FBF751FC00F0EEF8FBF745FC01902879CD
:1049700000F0400058B1A88820F04000A88000BF97
:104980001848C01F009027E0208A401E20826189BD
:104990002289206801FB020ADAF800003860608989
:1049A000401C80B26081E188884201D10020608192
:1049B00004F11400FFF76BFA50B904F1140002F08F
:1049C00045FD0198FBF71FFC00F0BCF8002089E7CB
:1049D000E089401CE08100BF0198FBF714FC0098BF
:1049E00080E700000E060002900400207C040020F6
:1049F00020040020180400203CBCBDE8C09F00003B
:104A00002DE9FC5F81460F4690461E46002000902F
:104A1000A9F1010BBBF10A0F02D3434800F08EB895
:104A200017B94148401CF9E7B8F1000F02D13E48E0
:104A3000801CF3E72EB13D48006810B13A480838B1
:104A4000ECE7FBF7D8FB01900BEB4B0000EBCB0046
:104A50003749096801EB8004A08820B900BF3248BB
:104A6000C01C00905BE02089404504D200BF2E4866
:104A7000001D009053E0E08950BB26B900BF2A48D2
:104A8000401D00904BE02B48008820B100BF264815
:104A90000B38009043E028480568324604F11401C1
:104AA000284602F091FC0198FBF7ADFB00F04AF8B4
:104AB000FBF7A1FB0190287900F0400058B1A888CD
:104AC00020F04000A88000BF17480A38009026E078
:104AD000E089401EE081A1892289206801FB020A49
:104AE000CAF80070A089401C80B2A081E188884289
:104AF00001D10020A08104F11C00FFF7C8F950B9D2
:104B000004F11C0002F0A2FC0198FBF77CFB00F012
:104B100019F8002082E7208A401C208200BF0198FB
:104B2000FBF771FB009879E7110600029004002062
:104B30007C04002020040020180400203CBCBDE8B8
:104B4000C09F000010B5FBF756FB0446FFF704FEBC
:104B50003C380A494860084600684968884208D0DD
:104B60000748008828B92046FBF74DFBFBF74EFBB2
:104B700010BD2046FBF747FB00BFF9E718040020F3
:104B8000200400202DE9F04105460E4616B91648CE
:104B9000BDE8F0814FF6FE70854202DD1248801DAF
:104BA000F6E7FBF728FB80461048FFF778F928B1B5
:104BB0004046FBF728FB0C48401CE9E70B484768D8
:104BC0003846FFF740F9A7F10804658001202070FE
:104BD00004F10800FFF774F9606830604046FBF7A5
:104BE00012FB0020D4E7000002070002800400202E
:104BF00070B505461348006800EB0514FBF7FBFA97
:104C000006460A2D01D2207820B93046FBF7FBFA80
:104C10000D4870BD04F10800FFF741F928B930468E
:104C2000FBF7F1FA08480830F3E704F108010748F8
:104C3000FFF7E0F8002020703046FBF7E4FA002090
:104C4000E7E700008804002001070002800400203C
:104C50002DE9F047074688464348006800EB0715F2
:104C6000FBF7C9FA82460A2F01D2287828B95046A4
:104C7000FBF7C9FA3D48BDE8F0876888002807DDE2
:104C80006888401E68805046FBF7BDFA0020F2E7B6
:104C9000B8F1000F02D1354EF61C5FE034480068D1
:104CA00068B1324E361D00BF32A001F053FB33A075
:104CB00001F050FB3AA001F04DFB00BF4EE0394837
:104CC000008868B1294E761D00BF2AA001F042FB82
:104CD00035A001F03FFB32A001F03CFB00BF3DE0FE
:104CE0003A48046804F13C00FFF704FDA08820F076
:104CF0000400A080A56104F13C09A08840F00800F0
:104D0000A080494605F10800FFF7EDF808F1010021
:104D100040B1A08840F04000A0804146204602F00B
:104D200059FD03E0A08820F04000A0805046FBF72A
:104D30006AFAFFF707FF207900F0400060B1FBF747
:104D40005AFA8246A08820F04000A0805046FBF727
:104D50005AFA064EB61D05E000208CE75046FBF7D8
:104D600052FA00BF304686E788040020010700029F
:104D7000900400205B4552525D2000002121214C0F
:104D80004F535F4552524E4F5F53454D5F50454E16
:104D9000445F494E544552522121210A000000002F
:104DA0000D0A0000200400202121214C4F535F45B3
:104DB00052524E4F5F53454D5F50454E445F494EF2
:104DC0005F4C4F434B2121210A00000018040020B2
:104DD0002DE9F04106462A48006800EB06150A2E28
:104DE00002D32848BDE8F081FBF705FA074628788A
:104DF00020B93846FBF707FA2248F3E768884FF6F0
:104E0000FE71884205D13846FBF7FDF91D48C01DEB
:104E1000E8E705F10800FFF742F848BBE868A0F1B1
:104E20003C04E868FFF70FF8A08820F00800A08095
:104E3000207900F0400030B1204602F0DDFFA0886C
:104E400020F04000A0800020A061207900F0020046
:104E500040B9A08840F00400A080E18804F13C0043
:104E6000FFF754FC3846FBF7CEF9FFF76BFE05E081
:104E70006888401C68803846FBF7C5F90020B1E718
:104E80008804002001070002014908607047000003
:104E90008C04002010B50024FBF780F9204610BDDB
:104EA0002DE9F04705460E4617469846DDF8209056
:104EB00015B91C48BDE8F08726B1012E02D019486B
:104EC000401CF7E717B91748401EF3E7B8F1000F89
:104ED00002D11448801CEDE7FBF78DF98246124899
:104EE000006828B95046FBF78EF90E48C01CE1E770
:104EF0000D4804680C49206808605046FBF783F9A8
:104F0000E76166710020A071256165612060E06045
:104F1000C4F81890012020712089A8F80000002012
:104F2000C8E70000010300020C0400202DE9F04155
:104F3000044600274FF6F070844202DB1A48BDE8B1
:104F4000F081FBF758F980462046E11704EB117118
:104F50000911A4EB01118EB21448006800EB46154C
:104F60002889A04204D04046FBF74DF90E48E6E7F9
:104F7000287920B1012809D002280BD102E00A4F7C
:104F80007F1C0AE0284602F001FC00BF284602F020
:104F9000E1FB02E0044F093700BF00BF4046FBF7CA
:104FA00032F93846CBE70000050300020804002070
:104FB0002DE9F041044600274FF6F070844202DBF1
:104FC0001A48BDE8F081FBF716F980462046E11744
:104FD00004EB11710911A4EB01118EB214480068A1
:104FE00000EB46152889A04204D04046FBF70BF998
:104FF0000E48E6E7287920B1012809D002280BD114
:1050000002E00A4F7F1C0AE0284602F0BFFB00BF07
:10501000284602F0DDFA02E0044F093700BF00BF66
:105020004046FBF7F0F83846CBE7000005030002E6
:10503000080400202DE9F041044600274FF6F070E7
:10504000844202DB1948BDE8F081FBF7D4F88046C2
:105050002046E11704EB11710911A4EB01118EB286
:105060001348006800EB46152889A04204D040464A
:10507000FBF7C9F80D48E6E7287920B1012805D0EB
:1050800002280AD105E0094F7F1C09E0074F0837C5
:1050900006E0284602F07AFB02E0044F093700BF21
:1050A00000BF4046FBF7AFF83846CCE705030002E7
:1050B000080400202DE9F04105460F460026394638
:1050C000284600F045F8064616B13046BDE8F081A6
:1050D000286800EB800101EBC0001949096801EB69
:1050E000C004FBF788F88046A08820F00200A0806A
:1050F000A08840F00400A080E18804F13C00FFF7A4
:1051000005FBFFF729FB3C380E4948600E48006854
:1051100088B10E48008870B908460068496888421E
:1051200009D00A48008830B94046FBF76CF802F015
:10513000C9F90020CAE74046FBF765F80020C5E73B
:105140001404002018040020500400202004002033
:105150002DE9F05F07460D464FF000094FF0FF3A8A
:1051600017B9574800F0B6B815B95548801FF9E788
:10517000E86910B95248801EF4E7286810B9504811
:10518000C01EEFE7A8881F2802DD4D48001FE9E791
:10519000A869B0F5004F02D949481930E2E7A8697B
:1051A00010B94FF43470A8610821A869FEF708F916
:1051B000A86110214FF49870FEF702F9A96988429E
:1051C00002D93F48401ECDE7FBF715F8834611E0B2
:1051D0003C484068A0F13C043A494868FEF71FFE8D
:1051E00004F13C013848FEF7F0FD3848E1680068FA
:1051F000FEF77AFF3348FEF73AFE0028E8D032483F
:10520000FEF735FE28B1DFF8B8A00AF10A0A00BFA0
:1052100051E02D484068A0F13C042B494868FEF756
:10522000FEFD5846FAF7EFFFD4F810900822274801
:10523000A9690068FEF71FFF06465EB9FAF7DBFFB3
:10524000834604F13C012048FEF7BFFDDFF880A053
:1052500000BF30E032464846A96902F01FFE804692
:10526000C4F80080A868A062E968E1622969216346
:1052700069696163E660A869A0600020A061E061DF
:1052800060620220A080A088296A09B1802100E024
:1052900000210843A080A888E080286860614FF062
:1052A000FF3020650020E065E869A06300206066AB
:1052B000C7F8009056E75846FAF7A5FF504651E761
:1052C000070200024004002038040020940400205B
:1052D0000002000330BCBDE8C09F000070B504466A
:1052E0001948006808B1194870BD1948008808B10C
:1052F0001848F9E714B900F0DDF9F5E7FAF77BFF94
:1053000005461549096801F13C00FFF7F3F9124819
:105310000068808820F004000F49096888800E49E1
:105320000868214602F056FA0B480068808840F071
:1053300020000949096888802846FAF764FFFFF7CA
:1053400001FC0020D0E70000900400200D020003C3
:10535000200400200E020002180400202DE9F04174
:1053600006464FF0FF374D480068864202D14C4850
:10537000BDE8F0814B480068864202D348480D38AA
:10538000F6E7FAF738FF804606EB860000EBC6002A
:105390004549096801EBC004A588207900F00100A7
:1053A00018B13F4F0A3F00BF73E005F0100028B16D
:1053B0003E48008810B13E4F00BF6AE005F004008F
:1053C00040B104F13C00FFF795F9A08820F00400FB
:1053D000A08009E005F0080010B905F4005018B1EC
:1053E00004F13C00FEF71BFD05F0600010B1204603
:1053F00002F002FDA08820F00200A080A08840F00A
:105400000100A0804FF0FF3020650020E065FFF72D
:10541000A3F93C3827494860207900F0100038B3E0
:1054200004F13C012448FEF74EFD1E48006800EBE5
:10543000800101EBC0001C49096801EBC0001D4957
:105440000860084600680661A088096888801949D4
:10545000E0680968C8601749A06B09688863012083
:10546000A0804046FAF7CFFE02F02CF800207FE73C
:105470000120A08004F13C011048FEF7A6FC104872
:10548000E1680068FEF730FE4046FAF7BCFE0020F7
:105490006EE74046FAF7B7FE384669E72804002071
:1054A0001402000224040020140400202004002020
:1054B0000B020003180400204004002038040020E0
:1054C0009404002010B5FAF796FE044604480088BC
:1054D000401C034908802046FAF795FE10BD0000E5
:1054E000200400202DE9F04105464FF0FF370F2D35
:1054F00002D92448BDE8F08105EB850000EBC5002A
:105500002149096801EBC004FAF775FE8046A688B8
:1055100006F0010018B11B4FFF1C00BF2CE006F085
:10552000020018B9174FBF1C00BF25E0A08820F06B
:105530000200A080A08842F22A410840B8B9A088A1
:1055400040F00400A080E18804F13C00FFF7DEF8A1
:105550000E48006830B14046FAF755FEFFF7F2FA00
:105560000020C7E7FFF7F8F83C3809494860404693
:10557000FAF749FE0020BDE74046FAF744FE3846F8
:10558000B8E70000070200021404002050040020C5
:10559000180400202DE9F04105464FF0FF372E4852
:1055A0000068854202D12D48BDE8F0812C48006892
:1055B000854202D129480D30F6E72A480068854225
:1055C00002D326480D38EFE705EB850000EBC50058
:1055D0002549096801EBC004FAF70DFE8046A6884C
:1055E00006F0010018B11D4F0A3F00BF2FE006F082
:1055F000020018B1194F0C3F00BF28E006F0100060
:1056000028B11A48008810B1194F00BF1FE006F0FA
:10561000040038B104F13C00FFF76CF8A08820F0DA
:105620000400A080A08840F00200A080114800681B
:105630000069A84206D14046FAF7E5FDFFF782FA75
:105640000020B1E74046FAF7DEFD0020ACE7404617
:10565000FAF7D9FD3846A7E7280400201402000213
:105660002C04002024040020140400202004002026
:10567000150200031804002010B5FAF7BCFD04461B
:105680000B48008800280DDD09480088401E0849A5
:1056900008800846008828B92046FAF7B4FDFFF7CD
:1056A00051FA10BD2046FAF7AEFD00BFF9E7000041
:1056B0002004002070B500241C48006800691C49C3
:1056C0000968884201D31B4870BDFAF794FD05466E
:1056D00016490968C888FFF72BF80446012C17D92A
:1056E0001249096801F13C00FEF799FB0F48006878
:1056F000808840F004000D49096888800B4A1268D0
:10570000D1880A4A126802F13C00FEF7FFFF05E06B
:105710002846FAF778FD07480930D5E72846FAF712
:1057200072FDFFF70FFA0020CEE7000018040020FA
:105730002404002007020002014903C97047000049
:105740005804002010B5FAF756FD04460A480068D0
:10575000401C094908602046FAF755FD02F0E6FAB8
:10576000FAF749FD044604480068401E02490860F3
:105770002046FAF748FD10BD90040020704700BF96
:10578000FEE7704702480068C0F30220704700003F
:105790000CED00E010B5002807DA0A07140E054AE0
:1057A00000F00F031B1FD45403E00A07130E024A34
:1057B000135410BD18ED00E000E400E02DE9F041C5
:1057C00004460E46002700255B48C06800F0030031
:1057D00090B15948C06800F003002168884209D19F
:1057E000206838B15448C068C0F30210401C61689A
:1057F000884233D0012531E02068012804D00228F6
:1058000009D003281AD10DE04B48006800F00200CF
:1058100000B9012514E04848006800F4806000B930
:1058200001250DE04448006800F4003028B94248E2
:10583000006800F4802000B9012501E0012500BFC7
:1058400000BF5DB9D4E90010401E41EA00103A499A
:10585000C96821F0730108433749C860002D68D139
:105860003548006820F0806033490860FCF70EFD81
:10587000074606E0FCF70AFDC01B022801D90325F4
:1058800005E02D48006800F000600028F2D100BF5C
:10589000CDBB6EB9A0680002E168090940EA414049
:1058A00025490969254A114008432349086120E038
:1058B000012E0FD1A0680002218A0122C2EB510102
:1058C00040EA41501C4909691D4A114008431A49E0
:1058D00008610EE0A0680002217D0122C2EB5101A7
:1058E00040EA416014490969164A114008431249C7
:1058F00008611148006840F080600F490860FCF7BB
:10590000C5FC074607E014E0FCF7C0FCC01B0228FA
:1059100001D9032505E00848006800F00060002870
:10592000F2D000BF2DB904480069A16908430249BB
:1059300008612846BDE8F08100100240FF80FDFFAD
:10594000FF809FFFFF80FFF92DE9F04104460E46DE
:10595000002700255248C06800F0030090B150486D
:10596000C06800F003002168884209D1206838B17E
:105970004B48C068C0F30210401C6168884233D0B5
:10598000012531E02068012804D0022809D003282D
:105990001AD10DE04248006800F0020000B901256C
:1059A00014E03F48006800F4806000B901250DE074
:1059B0003B48006800F4003028B93948006800F41A
:1059C000802000B9012501E0012500BF00BF5DB9BD
:1059D000D4E90010401E41EA00103149C96821F0A5
:1059E000730108432E49C860002D55D12C4800682A
:1059F00020F080502A490860FCF748FC074606E082
:105A0000FCF744FCC01B022801D9032505E024480B
:105A1000006800F000500028F2D100BFE5BB6EB96D
:105A2000A0680002E168090940EA41401C4949694F
:105A30001C4A114008431A4948610EE0A068000260
:105A4000217C0122C2EB510140EA416014494969BD
:105A5000154A11400843124948611148006840F056
:105A600080500F490860FCF711FC074606E0FCF780
:105A70000DFCC01B022801D9032505E00848006879
:105A800000F000500028F2D000BF2DB90448406952
:105A900061690843024948612846BDE8F081000079
:105AA00000100240FF80FDFFFF80FFF9F8B50446BB
:105AB000002600252348806D00F0805018B1FCF7C7
:105AC00055FC064616E000BF1E48806D40F0805031
:105AD0001C4988650846806D00F08050009000BF2A
