:020000040800F2
:10000000F88A0020A10200088F310008892000082A
:100010008B310008E9090008CF3D0008000000000E
:1000200000000000000000000000000099360008F9
:10003000ED09000800000000170200089B360008C8
:10004000BB020008BB020008BB020008BB0200089C
:10005000BB020008BB020008BB020008BB0200088C
:10006000BB020008BB020008BB020008BB0200087C
:10007000BB020008BB020008BB020008BB0200086C
:10008000BB020008BB020008BB020008BB0200085C
:10009000BB020008BB020008BB020008BB0200084C
:1000A000BB020008BB020008BB020008BB0200083C
:1000B000BB020008BB020008BB020008BB0200082C
:1000C000BB020008BB020008BB020008BB0200081C
:1000D000BB020008BB020008BB020008BB0200080C
:1000E000510B0008BB020008BB020008BB0200085D
:1000F000BB020008BB020008BB020008BB020008EC
:10010000BB020008BB020008BB020008BB020008DB
:10011000BB020008BB020008BB020008BB020008CB
:10012000BB020008BB020008BB020008BB020008BB
:10013000BB020008BB020008BB020008BB020008AB
:10014000BB020008BB020008BB020008BB0200089B
:10015000BB020008BB020008BB020008BB0200088B
:10016000BB020008BB020008BB020008BB0200087B
:10017000BB020008BB020008BB0200080000000030
:10018000BB020008BB020008DFF80CD000F036FB11
:1001900000480047AD4E0008F88A0020344C354D29
:1001A000256035484FF0010101604FF0020080F3F7
:1001B00014883248426831480260304B186887889A
:1001C0004FF0100847EA08078780D0F800C00CF10C
:1001D000640CBCE8FF000CF1480C8CF309882DED91
:1001E000010ABDEC010AAE4662B63047EFF3058066
:1001F000704772B67047EFF3108072B67047EFF336
:10020000108062B6704780F3108870471C484FF02A
:10021000805101607047EFF3108C72B6194A126872
:1002200022B12DE900509047BDE80050EFF309805E
:1002300020E9F01F20ED108B104D2E683060B7883C
:100240004FF0100827EA0807B7800C48406828607C
:1002500087884FF0100847EA08078780016800F098
:1002600013B800F017B881F309888CF31088704731
:1002700020ED00E00000F0F0500400201804002001
:1002800004ED00E054040020B1EC088BB1EC08CB85
:10029000FFF7E7BF30C9B1E8C01FFFF7E4BF0000B8
:1002A0000648804706480047FEE7FEE7FEE7FEE710
:1002B000FEE7FEE7FEE7FEE7FEE7FEE7153700088C
:1002C000890100082DE9F05F0546002092469B4613
:1002D00088460646814640241BE02846414647465C
:1002E000224600F0E1F853465A46C01A914110D315
:1002F00011461846224600F0C8F82D1A67EB01088F
:100300004F4622460120002100F0BFF817EB0009FC
:100310004E41201EA4F10104DFDC484631462A4646
:10032000434600F000B830BCBDE8C09FD2B201E047
:1003300000F8012B491EFBD270470022F6E710B5EA
:1003400013460A4604461946FFF7F0FF204610BD43
:100350002DE9F04D81EA030404F0004B21F0004543
:1003600014464FF0000A23F0004150EA050220D065
:1003700054EA01021DD0C5F30A570246C5F3130320
:10038000C1F31300C1F30A5640F4801543F48013FF
:10039000A7EB0608101BD64608F2FD3873EB0500E4
:1003A00002D308F1010801E092185B41B8F1000F97
:1003B00003DA00200146BDE8F08D00204FF48011E3
:1003C000064684460EE0171B73EB050705D3121B88
:1003D00063EB050306434CEA010C49084FEA300081
:1003E00092185B4150EA0107EDD152EA030012D0A6
:1003F00082EA040083EA0501084305D0101BAB41E3
:1004000006D20122002306E000224FF0004302E062
:100410006FF0010253101AEB06004CEB085110EB81
:100420000A0041EB0B01BDE8F04D00F04DB8C1F3FF
:100430000A52C1F3130140F2FF3341F480119A4292
:1004400002DA00200146704740F233439A42A2F29A
:10045000334202DC524200F027B800F016B830B543
:100460000B46014600202022012409E021FA02F572
:100470009D4205D303FA02F5491B04FA02F528440C
:10048000151EA2F10102F1DC30BD202A04DB203A66
:1004900000FA02F1002070479140C2F1200320FAD7
:1004A00003F3194390407047202A04DB203A21FAD5
:1004B00002F00021704721FA02F3D040C2F120027D
:1004C000914008431946704710B5141E73F100049B
:1004D00008DA401C41F1000192185B411A4301D136
:1004E00020F0010010BD2DE9F04D92469B4611B160
:1004F000B1FA81F202E0B0FA80F220329046FFF7C2
:10050000C4FF04460F4640EA0A0041EA0B01534685
:100510005A46084313D0114653EA010019D0C8F1D6
:1005200040025046FFF7C0FF05460E46504659466A
:100530004246FFF7AAFF084305D0012004E0204609
:100540003946BDE8F08D0020054346EAE0762C43AD
:1005500037430A986305E40AA0EB08000022FD0A6D
:1005600044EA47540A3002D500200146E9E7010574
:1005700010196941DDE9084500196941BDE8F04DF0
:10058000A2E72DE9FE4F804681EA0300C00F0C462A
:10059000009021F0004123F00045B8EB0200A94192
:1005A00005D24046214690461C460B46024623F0A3
:1005B0000040104347D0270DC7F30A00C3F30A5188
:1005C0000290401A019040286BDAC3F3130040F404
:1005D000801B0098924620B10023D2EB030A63EB04
:1005E0000B0B01985946C0F140025046FFF74DFFF2
:1005F00006460D4650465946019A00F011F910EB97
:1006000008006141002487EA115284EAE7731A4323
:1006100040D0009A62B3019A012A4FEA075215DCD2
:10062000001B61EB02014FF0004202EA0752CDE9E4
:100630000042001C41F5801132462B46FFF753FF64
:1006400003B000F045B840462146F9E7001B61EBD6
:100650000201001C41F5801300185B412018A2F52F
:10066000001747EB030140EAD570B6196D4111E060
:100670006D084FEA360645EAC0754FEA0752001B7F
:1006800061EB0201001C41F5801149084FEA30007E
:100690000019514132462B4603B000F01CB8FFF759
:1006A00013BF0098012240000023D0EB020263EB4D
:1006B000E073009821464FEAE074B8EB000061EB6C
:1006C0000401E9E783F000435BE781F0004158E76C
:1006D00030BCBDE8C08F30BCBDE8C04FFFF7DFBF06
:1006E0002DE9FE4F81EA030404F0004421F00041AB
:1006F00000944FF0000B23F0004350EA01045ED059
:1007000052EA03045BD0C3F30A54C1F30A552C44E4
:10071000A4F2F3340194A0FB0254C1F3130141F499
:100720008011C3F3130343F4801301FB024400FB65
:10073000034E840A970A44EA815447EA8357A4FB8C
:10074000076802958D0A05FB07854FEA932C04FB89
:100750000C542705029D4FEA065847EA1637B5EBB9
:1007600008056EEB070C870E920E47EA811742EAE6
:100770008312A7FB0201B6EB0B0164EB00042B0D07
:1007800043EA0C335E1844EB1C50DA465146E7FB53
:100790000201C5F313044FEA0B3343EA14534FEA43
:1007A0000432019C43EA0603A4F10C040294009C69
:1007B000CDE900B4FFF797FE03B000F003B80020C6
:1007C0000146F9E730BCBDE8C08F000030B5041E1B
:1007D00071F1000404DB4FF00044404264EB01017E
:1007E000141E73F1000405DB1C464FF00043524217
:1007F00063EB0403994208BF904230BD064C074D9D
:1008000006E0E06840F0010394E8070098471034E0
:10081000AC42F6D3FFF7BCFCB4540108E454010821
:10082000202A06DBCB17203A41FA02F043EAE073B4
:1008300006E041FA02F3D040C2F1200291400843A1
:100840001946704770B58C1810F8015B15F0070356
:1008500001D110F8013B2A1106D110F8012B03E059
:1008600010F8016B01F8016B5B1EF9D12B0705D461
:100870000023521E0DD401F8013BFAE710F8013BAA
:10088000CB1A921C03E013F8015B01F8015B521EC6
:10089000F9D5A142D8D3002070BD000010B586B0B4
:1008A0000446142101A8FFF748FD00BF6CB900BF42
:1008B0000F48C06C40F001000D49C8640846C06C88
:1008C00000F00100009000BF00BF00BF094830F8F1
:1008D0001400019001200290002003900220049057
:1008E000054951F8240001A900F024FA06B010BD12
:1008F00000100240686A0008B804002010B50446E1
:10090000044A32F81410044A52F82400002200F07D
:100910001DFB10BD686A0008B804002010B504462D
:10092000044A32F81410044A52F82400012200F05C
:100930000DFB10BD686A0008B804002030B587B010
:1009400004460D46142102A8FFF7F7FC00BF6CB95E
:1009500000BF2048C06C40F004001E49C86408462F
:10096000C06C00F00400019000BF00BF00BF7DB963
:10097000194830F8140002900020039004900220DF
:100980000590164951F8240002A900F0D3F91FE0A0
:10099000012D1DD1104830F814000290104803902A
:1009A00000200490022005900C4951F8240002A96F
:1009B00000F0C0F90B4911F8141048B200220F21C1
:1009C00000F0F9FA074911F8141048B200F0E6FAFD
:1009D00007B030BD001002406A6A0008BC04002065
:1009E000000021106C6A000800BFFEE7704700009D
:1009F0002DE9F04105460E4614469846502002F077
:100A0000ABFD472002F0F8FD04F008FA56E020782C
:100A10007E2827DC28460830B0F5C87F03DD002596
:100A200006F1100086B230461030B0F5967F01DD39
:100A300000250026227843463146284600F0C8F8B3
:100A400000BF27A003F0C6F92278284928A003F0A8
:100A5000C1F92DA003F0BEF900BF05F1080085B271
:100A6000641C2BE028461030B0F5C87F03DD00255C
:100A700006F1100086B230461030B0F5967F01DDE9
:100A8000002500262788380200EB272087B243463E
:100A90003A463146284600F061F800BF10A003F046
:100AA00099F92246114919A003F094F916A003F010
:100AB00091F900BF05F1100085B2A41C2078002830
:100AC000A5D100BF06A003F085F9084916A003F0E0
:100AD00081F90DA003F07EF900BFBDE8F0810000B0
:100AE0005B44454255475D2000000000046A000851
:100AF0000D0A5B25735D20456E676C697368206322
:100B00006861723A202563090D0A00000D0A5B2511
:100B1000735D204368696E65736520636861723A2E
:100B200020256C73200D0A000D0A5B25735D20449F
:100B30006973706C617920537472696E6720636F9A
:100B40006D706C6973686564202121210D0A0000B5
:100B500010B54FF4005000F0DFF810BD2DE9F04F54
:100B600091B004460D46202109A8FFF7E6FB2612A6
:100B7000E7B204F10F00C0F3072800F0FF094FEAC5
:100B8000252AE8B2089005F10F00C0F3072007906E
:100B900005F10F0000F0FF0B202009A9094ACDE95B
:100BA00003B2CDE90510DDE907014B464246CDE928
:100BB00000A102903946304605F0ECFA11B000F081
:100BC00003B80000C886002030BCBDE8C08F00001C
:100BD0002DE9F04F91B004460D4617461DA30FCBEB
:100BE0000DAE0FC620120C90E0B20B90E01DC0F3CA
:100BF00007200A90E01DC0B209902812089005F065
:100C0000FF0905F10F00C0F3072A00F0FF0BA7F161
:100C1000200000F0FF08002607E0124800EB081053
:100C2000805D0DA98855701CC6B2102EF5DB102012
:100C30000DA90D4ACDE903B2CDE9051008988DE85C
:100C40000106DDE90932DDE90B1005F0A3FA11B068
:100C500000F00CB8000000666666667E6666666632
:100C60000000000014640008E886002030BCBDE8E5
:100C7000C08F00000BE000BF05A003F0ABF80649F1
:100C800006A003F0A7F80AA003F0A4F800BFF2E75B
:100C90005B4552525D200000D86300085B25735D00
:100CA000204552524F5220212121200D0A000000E0
:100CB0000D0A000010B50446B4F5005F0BD100BF6B
:100CC00005A003F087F8074907A003F083F811A0F7
:100CD00003F080F800BF10BD5B44454255475D20DE
:100CE00000000000C16300085B25735D204C6F733A
:100CF000204B6579204558544920496E74657275BA
:100D00007074696F6E2068617070656E6564200D27
:100D10000A0000000D0A000010B5044604480068EF
:100D2000204020B1024804602046FFF7C3FF10BDF9
:100D30001404014078B50346002200240020E5E0B9
:100D4000012696400D6805EA0604002C7DD04D680A
:100D5000022D02D04D68122D13D1D60803F12005C3
:100D600055F826005507EE0E0F25B540A843560747
:100D7000F60E0D69B5402843D60803F1200545F865
:100D80002600186856000325B540A8430D7905F0E4
:100D900003055600B540284318604D68012D08D062
:100DA0004D68022D05D04D68112D02D04D68122DD1
:100DB00013D1986856000325B540A8435600CD6866
:100DC000B54028439860586801259540A8430D799F
:100DD000C5F300159540284358600D7905F00305CB
:100DE000032D09D1D86A01259540A8430D79C5F393
:100DF000C00595402843D862D86856000325B54001
:100E0000A84356008D68B5402843D8604D6805F06A
:100E10008055B5F1805F78D100BF3F4D2D6E45F014
:100E200001053D4E356635462D6E05F001050095F0
:100E300000BF00BF4FEAB635960855F82600950763
:100E40002E0F0F25B540A84300E05EE0B3F1904FB0
:100E500001D100251EE0314DAB4201D1012519E041
:100E60002F4DAB4201D1022514E02E4DAB4201D1F2
:100E700003250FE02C4DAB4201D104250AE02B4D98
:100E8000AB4201D1052505E0294DAB4201D1062534
:100E900000E007259607360FB5402843254D9608F4
:100EA00045F82600244D2868A0434D6805F4803598
:100EB000B5F5803F00D120431F4D28602D1D2868C7
:100EC000A0434D6805F40035B5F5003F00D120433F
:100ED000194D2D1D28602D1D2868A0434D6805F46F
:100EE0008015B5F5801F00D12043134D08352860CB
:100EF0002D1D2868A0434D6805F40015B5F5001FA9
:100F000000D120430C4D0C352860521C0D68D54093
:100F1000002D7FF415AF78BD00100240000400489A
:100F200000080048000C0048001000480014004869
:100F300000180048080001400004014002461369FF
:100F40000B400BB1012000E0002070470AB1816125
:100F500000E08162704700000148006870470000AF
:100F6000B404002002480068401C01490860704732
:100F7000B404002070B50446074800684FF47A7145
:100F8000B0FBF1F5284600F075FF00222146501E07
:100F900000F011F8002070BDB004002000BF00F088
:100FA0001F02012191404209920002F1E022C2F8A1
:100FB000001100BF70472DE9F05F80460D461646D0
:100FC000002702F0E5F8074639462A46334601F085
:100FD0000700C0F1070ABAF1040F02D94FF0040A62
:100FE00001E0C0F1070AD14600F1040ABAF1070F87
:100FF00002D24FF0000A01E0A0F1030AD4464FF0FC
:10100000010A0AFA09FAAAF1010A0AEA020A0AFA24
:101010000CFA4FF0010B0BFA0CFBABF1010B0BEAD6
:10102000030B4AEA0B042146404602F0B9F800F0EF
:1010300000B830BCBDE8C09F0248006800F4C06042
:1010400070470000007000402DE9F8430446002678
:1010500000270025A846208800F40060B0F5006F46
:1010600030D1606E80B1B0F5800F13D0B0F5000FB5
:1010700003D0B0F5400F15D113E0FA48C06840F432
:101080008030F849C8600FE00021201D02F09CF874
:10109000054609E0002104F1200002F05BF9054655
:1010A00002E001E0012500BF00BF55B9ED488830DE
:1010B000006820F44000616E0843EA49C1F88800E6
:1010C00000E0A846208800F48050B0F5805F30D161
:1010D000A06E80B1B0F1807F13D0B0F1007F03D05B
:1010E000B0F1407F15D113E0DE48C06840F4803095
:1010F000DC49C8600FE00021201D02F065F80546BC
:1011000009E0002104F1200002F024F9054602E084
:1011100001E0012500BF00BF55B9D2488830006802
:1011200020F04070A16E0843CE49C1F8880000E06D
:10113000A846206800F40030B0F5003F76D14FF0AB
:101140000009C848806D00F0805078B900BFC548DC
:10115000806D40F08050C34988650846806D00F07E
:101160008050009000BF00BF4FF00109BE480068EA
:1011700040F48070BC490860FFF7EEFE074606E0C9
:10118000FFF7EAFEC01B022801D9032505E0B64897
:10119000006800F480700028F2D000BF85BBB14821
:1011A0009030006800F44076D6B1D4F88400B042A4
:1011B00016D0AC489030006820F44076A948D0F8AA
:1011C000900040F48030A749C1F890000846D0F85C
:1011D000900020F48030C1F890000846C0F890607C
:1011E00006F00100A8B1FFF7B7FE074609E0FFF7D8
:1011F000B3FEC01B41F28831884202D9032507E0C3
:1012000017E098489030006800F002000028EED007
:1012100000BF65B993489030006820F44070D4F85E
:10122000841008438F49C1F8900003E00CE0A84601
:1012300000E0A846B9F1010F05D18A48806D20F081
:1012400080508849886500BF207800F0010048B1CF
:1012500084488830006820F00300A16B084381496E
:10126000C1F88800207800F00200022809D17D48EA
:101270008830006820F00C00E16B08437949C1F820
:101280008800207800F00400042809D175488830CF
:10129000006820F03000216C08437249C1F88800D2
:1012A000207800F00800082809D16E4888300068CE
:1012B00020F0C000616C08436A49C1F888002078BA
:1012C00000F01000102809D166488830006820F42A
:1012D0004070A16C08436349C1F88800207800F091
:1012E0002000202809D15F488830006820F4406041
:1012F000E16C08435B49C1F88800208800F4007065
:10130000B0F5007F09D157488830006820F44020AC
:10131000E16D08435349C1F88800208800F48060DB
:10132000B0F5806F09D14F488830006820F4401034
:10133000216E08434B49C1F88800207800F0400036
:10134000402809D147488830006820F44050216D7A
:1013500008434449C1F88800207800F080008028C4
:1013600009D140488830006820F44040616D08434E
:101370003C49C1F88800208800F48070B0F5807F77
:1013800009D138488830006820F44030A16D084306
:101390003449C1F88800208800F40050B0F5005F9F
:1013A0001FD130488830006820F04060E16E08436B
:1013B0002C4988310860E06EB0F1006F06D12948F1
:1013C000C06840F480102749C8600AE0E06EB0F1C0
:1013D000806F06D10121201D01F0F6FE054605B102
:1013E000A846206800F40020B0F5002F1FD11D484A
:1013F0008830006820F04060216F08431949883127
:101400000860206FB0F1006F06D11648C06840F444
:1014100080101449C8600AE0206FB0F1806F06D1D7
:101420000121201D01F0D0FE054605B1A846206827
:1014300000F48020B0F5802F23D10A48883000685E
:1014400020F04060616F0843064988310860606F92
:10145000B0F1006F0AD10348C06840F48010014920
:10146000C8600EE00010024000700040606FB0F1F4
:10147000806F06D10121201D01F0A6FE054605B1B1
:10148000A846208800F48040B0F5804F1FD1224844
:10149000006820F04050A16F08431F490860A06F0A
:1014A000B0F1805F07D10221201D01F08DFE0546BD
:1014B0006DB1A8460BE0A06FB0F1005F07D102212B
:1014C00004F1200001F046FF054605B1A84620883A
:1014D00000F40040B0F5004F09D10F48006820F03B
:1014E0008040E16F08430C498839C1F888002068C2
:1014F00000F48030B0F5803F0AD10748006820F042
:101500000040D4F88010084303498839C1F88800A6
:101510004046BDE8F88300008810024070B50446DC
:101520000D4600267048006800F00700A8420ED261
:101530006D48006820F0070028436B4908600846A2
:10154000006800F00700A84201D0012070BD20789B
:1015500000F00100002879D06068032806D16348B4
:10156000006800F00070D8B90120EFE76068022839
:1015700006D15E48006800F4003088B90120E5E734
:10158000606830B95948006800F0020040B9012095
:10159000DCE75648006800F4806008B90120D5E710
:1015A0005248806820F00300616808434F49886012
:1015B000FFF7D2FC06466068032810D108E0FFF769
:1015C000CBFC801B41F28831884201D90320BDE762
:1015D0004648806800F00C000C28F0D136E06068C6
:1015E000022810D108E0FFF7B7FC801B41F28831D8
:1015F000884201D90320A9E73C48806800F00C002C
:101600000828F0D122E0606880B908E0FFF7A4FC68
:10161000801B41F28831884201D9032096E7334884
:10162000806800F00C000028F0D10FE008E0FFF720
:1016300093FC801B41F28831884201D9032085E761
:101640002A48806800F00C000428F0D1207800F0CF
:101650000200022807D12548806820F0F000A16828
:101660000843224988602048006800F00700A8422B
:101670000ED91D48006820F0070028431A49086069
:101680000846006800F00700A84201D001205DE78D
:10169000207800F00400042807D11448806820F462
:1016A000E060E168084311498860207800F0080094
:1016B000082808D10D48806820F46050216940EA6C
:1016C000C1000A49886000F03DF808498968C1F303
:1016D0000311074A515CC840064908600F20FFF714
:1016E00049FC002032E700000020024000100240C8
:1016F000206A0008B004002001480068704700001C
:10170000B004002000B5FFF7F7FF04498968C1F372
:101710000221034A515CC84000BD00000010024095
:10172000306A000800B5FFF7E7FF04498968C1F394
:10173000C221034A515CC84000BD000000100240B5
:10174000306A0008F0B5002100230024022502229F
:1017500000203B4EB66806F00C065EB1384EB66807
:1017600006F00C060C2E1ED1354EF66806F0030668
:10177000012E18D1324E366806F008062EB9304ECA
:1017800094363668C6F3032103E02D4E3668C6F35F
:1017900003112C4E56F82110294EB66806F00C069F
:1017A00086B908460EE0264EB66806F00C06042EF2
:1017B00001D1254806E0224EB66806F00C06082E38
:1017C00000D122481E4EB66806F00C060C2E36D10B
:1017D0001B4EF66806F00304194EF668C6F30216AF
:1017E000721C012C19D0022C02D0032C14D109E058
:1017F000154EB6FBF2F6124FFF68C7F3062706FB3D
:1018000007F313E0114EB6FBF2F60D4FFF68C7F376
:10181000062706FB07F309E000BFB1FBF2F6084F0D
:10182000FF68C7F3062706FB07F300BF00BF044E9F
:10183000F668C6F34166761C7500B3FBF5F0F0BDA3
:1018400000100240386A00080024F40000127A00F8
:10185000F8B504460025207800F0100010286ED15D
:10186000F848806800F00C00002869D1F54800684D
:1018700000F0020018B1A06908B90120F8BDF148D4
:10188000216A006800F0080020B1EE48006800F00E
:10189000F00005E0EB489430006800F47060000947
:1018A00081421FD9206A01F007FE08B10120E5E757
:1018B00000BFE448006840F00800E24908600846BC
:1018C000006820F0F000216A0843DE49086000BF8C
:1018D0000846406820F47F40E16940EA0120D94988
:1018E00048601EE000BFD748006840F00800D549B6
:1018F00008600846006820F0F000216A0843D149DA
:10190000086000BF0846406820F47F40E16940EA73
:101910000120CC494860206A01F0CEFD08B10120C9
:10192000ACE7FFF70FFFC7498968C1F30311C64A47
:10193000515CC840C54908600F20FFF71BFB4AE017
:10194000A06980B3BF48006840F00100BD4908604D
:10195000FFF702FB054606E0FFF7FEFA401B0228F0
:1019600001D903208AE7B748006800F00200002888
:10197000F2D000BFB348006840F00800B1490860E9
:101980000846006820F0F000216A0843AD4908606D
:1019900000BF0846406820F47F40E16940EA01202A
:1019A000A849486017E0FFE7A648006820F001005A
:1019B000A4490860FFF7D0FA054606E0FFF7CCFA25
:1019C000401B022801D9032058E79E48006800F018
:1019D00002000028F2D1207800F00100002868D031
:1019E0009848806800F00C0008280BD09548806863
:1019F00000F00C000C280ED19248C06800F00300E3
:101A0000032808D18F48006800F4003088B360686C
:101A100078BB012032E700BF6068B0F5803F06D197
:101A20008848006840F48030864908601AE06068A1
:101A3000B0F5A02F0BD18348006840F48020814985
:101A400008600846006840F4803008600AE07D487D
:101A5000006820F480307B4908600846006820F464
:101A60008020086000BF606890B1FFF775FA0546F6
:101A700007E01EE0FFF770FA401B642801D903203D
:101A8000FCE67048006800F400300028F2D010E056
:101A9000FFF762FA054606E0FFF75EFA401B64288E
:101AA00001D90320EAE66748006800F40030002806
:101AB000F2D1207800F0020002285ED161488068EF
:101AC00000F00C0004280BD05E48806800F00C0089
:101AD0000C2818D15B48C06800F00300022812D11E
:101AE0005848006800F4806018B1E06808B9012027
:101AF000C4E65448406820F0F850217C40EA016078
:101B00005049486039E0E06800B34E48006840F44E
:101B100080704C490860FFF71FFA054606E0FFF7A2
:101B20001BFA401B022801D90320A7E6454800689C
:101B300000F480600028F2D04248406820F0F8505D
:101B4000217C40EA01603F49486016E03D4800685A
:101B500020F480703B490860FFF7FEF9054606E077
:101B6000FFF7FAF9401B022801D9032086E6354821
:101B7000006800F480600028F2D1207800F00800AE
:101B8000082836D16069D0B12E489430006840F002
:101B900001002C49C1F89400FFF7DEF9054606E084
:101BA000FFF7DAF9401B022801D9032066E6254831
:101BB0009430006800F002000028F1D019E02148BC
:101BC0009430006820F001001E49C1F89400FFF72E
:101BD000C3F9054606E0FFF7BFF9401B022801D90B
:101BE00003204BE617489430006800F002000028FC
:101BF000F1D1207800F0040004286ED100261148AD
:101C0000806D00F0805070B900BF0E48806D40F0CC
:101C100080500C4988650846806D00F08050009027
:101C200000BF00BF01260A48006800F48070F0B9C8
:101C30000748006840F4807005490860FFF78CF998
:101C400005460EE000100240206A0008B0040020A3
:101C500000700040FFF780F9401B022801D90320E3
:101C60000CE68148006800F480700028F2D000BFC4
:101C7000A068012808D17D48006840F001007B4938
:101C80009039C1F8900021E0A06805280FD177486D
:101C9000006840F0040075499039C1F8900008468A
:101CA000D0F8900040F00100C1F890000EE06F48BD
:101CB000006820F001006D499039C1F89000084695
:101CC000D0F8900020F00400C1F8900000BFA06898
:101CD000A0B1FFF741F9054609E02DE0FFF73CF917
:101CE000401B41F28831884201D90320C6E55F4894
:101CF000006800F002000028F0D012E0FFF72CF995
:101D0000054608E0FFF728F9401B41F28831884278
:101D100001D90320B2E55548006800F00200002810
:101D2000F0D1012E07D151489038806D20F08050BD
:101D30004E499039886500BFA06AE8B34B48903897
:101D4000806800F00C000C2879D0A06A022853D1DA
:101D500046489038006820F0807044499039086007
:101D6000FFF7FAF8054606E0FFF7F6F8401B0228F1
:101D700001D9032082E53D489038006800F00070EA
:101D80000028F1D1206B401E0101606B41EA002167
:101D9000A06B000941EA4040E16A0843A18F01229B
:101DA000C2EB510140EA41514020005DC2EB5000BE
:101DB00041EA40602D4900E053E09039C860084690
:101DC000006840F0807008600846C06840F080708D
:101DD000C860FFF7C1F8054606E0FFF7BDF8401BF5
:101DE000022801D9032049E520489038006800F016
:101DF00000700028F1D034E01C489038006820F0D2
:101E000080701A49903908600846006800F0006048
:101E100048B90846006800F0005020B90846C0687C
:101E200020F00300C86011489038C068104908408D
:101E30000E499039C860FFF78FF8054607E00EE0BD
:101E4000FFF78AF8401B022801D9032016E507484E
:101E50009038006800F000700028F1D101E0012006
:101E60000CE500200AE500000070004090100240E0
:101E7000FFFFEEFE70B504462546681EB0F1807F78
:101E800001D301200FE0681E4FF0E02148610F21CF
:101E90004FF0FF3001F084F900204FF0E02188611D
:101EA00007200861002070BD10B504460CB9012060
:101EB00010BDA06900B100E000BF94F8710028B91E
:101EC000002084F87000204600F02AF8242084F8CE
:101ED00071002068006820F0010021680860204639
:101EE00001F0F6FC012800D1E2E7606A10B120465B
:101EF00001F038FC2068406820F490402168486078
:101F00002068806820F02A002168886020680068C6
:101F100040F0010021680860204601F09FFCC7E7FF
:101F200010B5A8B0044600BF2448C06C40F00100C2
:101F30002249C8640846C06C00F00100009000BF50
:101F400000BF00BF0846C06C40F00100C8640846EE
:101F5000C06C00F00100009000BF00BF01200190A4
:101F60000F9001A8FFF770F800BF1448006E40F40E
:101F70008040124908660846006E00F480400090D8
:101F800000BF00BF48152390022024900120259017
:101F9000022026900720279023A94FF09040FEF7BB
:101FA000C9FE4FF4806023900720279023A94FF0AB
:101FB0009040FEF7BFFE28B010BD000000100240A8
:101FC0002DE9F84304460D4616461F464FF000091A
:101FD00094F87100202855D105B116B90120BDE84B
:101FE000F88300BF94F87000012801D10220F6E7C1
:101FF000012084F8700000BF00206067212084F871
:102000007100FEF7A9FF8146A4F85060A4F8526061
:1020100021E04B46002280212046009701F0A1FEDE
:1020200008B10320DBE7A068B0F5805F0AD1206922
:1020300040B9A846B8F80000C0F308002168088538
:10204000AD1C03E015F8010B21680885B4F85200B7
:10205000401EA4F85200B4F852000028D9D14B46D3
:10206000002240212046009701F07BFE08B10320AA
:10207000B5E7202084F8710000BF002084F87000CC
:1020800000BFACE70220AAE700BFFEE702465018F7
:10209000401E904204D95018401E4B1E9843704772
:1020A000481E22EA0000FAE710B58AB0242101A8F0
:1020B000FEF743F90F4801904FF4A06007900EA07F
:1020C00008900C20ADF8080001A90E4800F07CFE35
:1020D00004466CB100BF0CA001F07CFE0C490DA0C1
:1020E00001F078FE15A001F075FE00BF0AB010BD2A
:1020F00000BFFBE741210008426F61726444656DD7
:102100006F000000AC0400205B4552525D200000CF
:10211000FE6300085B25735D20426F617264457841
:10212000616D706C65207461736B2063726561749E
:1021300065204552524F5220212121200D0A0000D6
:1021400000BF22A001F046FE234924A001F042FE78
:1021500026A001F03FFE00BF02F0A0FD02F01EFD30
:1021600002F03CFB4FF6FF7321A2C0218020FEF756
:102170003FFC4FF6FF7322A280210846FEF738FC91
:1021800002F083FD002002F075FD02F05BFD1BE014
:1021900000BF0EA001F01EFE0F491EA001F01AFEA6
:1021A00012A001F017FE00BF0121022000F08EF8FE
:1021B0004FF4FA7000F01CFF0021022000F086F8B6
:1021C0004FF4FA7000F014FFE2E700005B44454270
:1021D00055475D2000000000E66300085B25735D45
:1021E00020456E7465722E2E2E0D0A000D0A000019
:1021F00048656C6C6F20576F726C642E2E2E000039
:1022000048756157656920656C6563747269632000
:10221000746167005B25735D20426F6172642048C2
:102220006172647761726520546573742E2E2E0D71
:102230000A00000010B5024614462046002305E0BF
:1022400001464960096000BF5B1C08301B2BF7D3B7
:1022500010BD2DE9F04105460E462F46304600F0F0
:1022600005F904461E2C02D90020BDE8F081042C9B
:1022700000D80424201F07EBC000F6E710B503F0D8
:102280005FFE044654B100BF05A001F0A3FD06A007
:1022900001F0A0FD09A001F09DFD00BF204610BD8A
:1022A0005B4552525D2000006F735469636B537439
:1022B000617274206572726F720A00000D0A00006C
:1022C00010B501210020FEF739FB10BD70B50546A1
:1022D0000C46022D09D1012C03D10020FEF71EFB74
:1022E00002E00020FEF70AFB00E000BF00BF70BD67
:1022F00010B50020FEF7D2FA10BD10B500F006F8B8
:10230000FFF7F6FFFFF7DCFF10BD000010B50B482C
:102310000B4908604FF4E1304860002108488160B3
:10232000C160016181610C2141610021C161FFF740
:10233000BBFD08B1FEF79EFC10BD00000038014057
:10234000D085002001B541F2883301226946034857
:10235000FFF736FE08B1FEF78DFC08BDD0850020E2
:1023600010B502F017FE04460CB1012010BD00208C
:10237000FCE742684A60086042681160416070474B
:1023800042684A6008604268116041607047426874
:102390004A600860426811604160704742684A6064
:1023A0000860426811604160704742684A60086096
:1023B0004268116041607047D0E900121160D0E9B5
:1023C000002151600021416001607047D0E9001296
:1023D0001160D0E900215160002141600160704727
:1023E000D0E900121160D0E9002151600021416064
:1023F0000160704701464868884201D1012070475A
:102400000020FCE701464868884201D1012070475E
:102410000020FCE701464868884201D1012070474E
:102420000020FCE74060006070474060006070473B
:1024300040600060704740600060704770B50446BF
:102440000D4629462068FFF794FF70BD70B504461D
:102450000D4629462068FFF793FF70BD70B504460E
:102460000D4629462068FFF799FF70BD014601F02F
:10247000004010B16FF0704070474C480840002891
:1024800047D001F0FE40F8B101F0E04058B101F052
:10249000804008B11E20EFE701F0005008B11D2078
:1024A000EAE71C20E8E701F0406030B101F000608D
:1024B00008B11B20E0E71A20DEE701F0007008B148
:1024C0001920D9E71820D7E701F4700080B101F492
:1024D000400030B101F4000008B11720CCE716200D
:1024E000CAE701F4001008B11520C5E71420C3E7BE
:1024F00001F4402030B101F4002008B11320BBE703
:102500001220B9E701F4003008B11120B4E710201F
:10251000B2E701F47F4020B301F4704080B101F4D0
:10252000404030B101F4004008B10F20A4E70E2074
:10253000A2E701F4005008B10D209DE70C209BE7B5
:1025400001F4406030B101F4006008B10B2093E762
:102550000A2091E701F4007008B109208CE70820F7
:102560008AE701F0F00080B101F0C00030B101F065
:10257000800008B107207FE706207DE701F02000FA
:1025800008B1052078E7042076E701F00C0030B1AF
:1025900001F0080008B103206EE702206CE701F0AB
:1025A000020008B1012067E7002065E70000FF7F17
:1025B00070B50446B4F1FF3F02D14FF0FF3070BD5B
:1025C0004FF47A70A4FB005001464FF47A72002356
:1025D0002846FDF777FEF2E72DE9F04105460C4667
:1025E0000026FDF708FE074600BF05B104B909E063
:1025F00004F0004000B105E02146284602F062FDEB
:10260000064600BF00BF3846FDF7FDFD3046BDE879
:10261000F0812DE9F05F80460F4614464FF0000927
:10262000CA4600250026FDF7E6FD834600BFB8F147
:10263000000F00D007B91BE0381900F1040909F0B8
:10264000004000B114E04946404602F03BFD05461B
:102650002819401E611E20EA0106B54200D107E09C
:10266000A6EB050A4AF0804A46F804AC354600BF9E
:1026700000BF5846FDF7C7FD284600F000B830BC43
:10268000BDE8C09F2DE9F04705460C46012700260E
:10269000FDF7B1FD814600BFB04605B104B914E0B5
:1026A00054F8046C06F0804010B126F08046A41B5C
:1026B000A4F110084146284602F066FD07461FB9FE
:1026C0002946404602F0D8FD00BF00BF4846FDF74E
:1026D0009AFD3846BDE8F0872DE9F0470446884664
:1026E000002500270026A94614B1B8F1FF0F03D832
:1026F0004FF0FF30BDE8F087FDF77DFD82462646AE
:1027000034463660C6F8048004F10800FFF792FDF5
:1027100004F1E005281BA8EB00001038E860002059
:10272000A86004F10800E968FFF793FD8146B9F15C
:10273000000F13D100BF19A001F04CFB4FF4F97248
:10274000184919A001F046FB19A001F043FB00BF96
:102750005046FDF758FD4FF0FF30CBE700BF29464C
:10276000D9F80000FFF721FE00BF04EB0800A0F13C
:102770001007002038607860B860F860BD601020F5
:10278000F860F86840F00040F860384602F028FE33
:102790005046FDF738FD0020ACE700005B45525283
:1027A0005D2000009C63000825732025640A00005A
:1027B0000D0A00002DE9F04105462F4600260024B1
:1027C00015B90020BDE8F081FDF715FD804607F141
:1027D0000806306820B13468206830600448206002
:1027E0004046FDF710FD0CB90020EBE7201DE9E79E
:1027F000A55A5AA52DE9F04705460E462C46012755
:1028000005B116B90120BDE8F087FDF7F4FC80465C
:1028100000BF311F20460A46D0F800C0BCF1000FAF
:1028200002D14FF0010C25E000F10C0CA2EB0C03DF
:10283000D0F800C0B3FBFCF90CFB193CBCF1000F55
:1028400002D04FF0010C15E0D0F800C0B3FBFCFC47
:10285000D0F80490CC4502D34FF0010C0AE0DFF829
:102860003490D2F800C0CC4502D04FF0010C01E00A
:102870004FF0000CBCF1000F00D004E0A06808602D
:10288000A160002700BF00BF4046FDF7BCFC3846F2
:10289000B9E70000A55A5AA52DE9F04706460F46AC
:1028A00090463446002516B90120BDE8F087B8F1FE
:1028B000000F01D10120F8E70C2F01D20120F4E72D
:1028C000FDF799FC824608F1070020F00300206024
:1028D000A7F10C002168B0FBF1F06060606820B9DE
:1028E0005046FDF790FC0120DFE704F10C05A560E0
:1028F0004FF0000905E02068284428602D6809F1A0
:1029000001096068401E4845F5D8002028605046FF
:10291000FDF779FC0020C8E700BFD0E90012116084
:10292000D0E90021516000214160016000BF704783
:1029300010B50A460649096801EBC20319684C68DC
:10294000446001604C682060486000BF00BF10BD5B
:1029500000040020014600200022074B1B6803EB07
:10296000C1035A6801E0401C5268034B1B6803EB2B
:10297000C1039342F7D170470004002000210020DA
:10298000014612E00B4A126802EBC1004268824223
:1029900001D1012200E000222AB90648006800EBBC
:1029A000C10040687047481C01462029EAD3002036
:1029B000F8E70000000400202DE9F84F81460C469E
:1029C00015469A460A9E15B9194800F033B84FF6D5
:1029D000FB70864202DD16480938F6E704B116B9E5
:1029E0001348401CF1E7FDF706FC8046301D82B21B
:1029F0006B462946204602F0AFFD074627B1404608
:102A0000FDF701FC3846E0E700981430FFF710FDB1
:102A100000981C30FFF70CFD00982430FFF708FDEC
:102A20000098C4814046FDF7EEFB0020CDE7000092
:102A30000C06000218BCBDE8E08F00002DE9FC5F29
:102A400080460F4691461E4600200090A8F1010BDB
:102A5000BBF10A0F02D3404800F088B817B93E48CE
:102A6000401CF9E7B9F1000F02D13B48801CF3E7A5
:102A70002EB13A48006810B137480A30ECE7FDF74C
:102A8000BAFB01900BEB4B0000EBCB00344909681B
:102A900001EB8004A08820B900BF2F480E300090C1
:102AA00054E0208A50BB26B900BF2B480F3000905D
:102AB0004CE02C48008820B100BF2748083800901F
:102AC00044E029480568324604F11C01284602F01A
:102AD00097FD0198FDF797FB00F0EEF8FDF78BFBF3
:102AE0000190287900F0400058B1A88820F04000FB
:102AF000A88000BF1848C01F009027E0208A401E11
:102B0000208261892289206801FB020ADAF800002C
:102B100038606089401C80B26081E188884201D1C0
:102B20000020608104F11400FFF76CFC50B904F13F
:102B3000140002F0A7FD0198FDF765FB00F0BCF85A
:102B4000002089E7E089401CE08100BF0198FDF783
:102B50005AFB009880E700000E0600029004002057
:102B60007C04002020040020180400203CBCBDE8A8
:102B7000C09F00002DE9FC5F81460F4690461E462F
:102B800000200090A9F1010BBBF10A0F02D34348CA
:102B900000F08EB817B94148401CF9E7B8F1000FB2
:102BA00002D13E48801CF3E72EB13D48006810B1C9
:102BB0003A480838ECE7FDF71EFB01900BEB4B00A1
:102BC00000EBCB003749096801EB8004A08820B9ED
:102BD00000BF3248C01C00905BE02089404504D211
:102BE00000BF2E48001D009053E0E08950BB26B97D
:102BF00000BF2A48401D00904BE02B48008820B1C0
:102C000000BF26480B38009043E02848056832464C
:102C100004F11401284602F0F3FC0198FDF7F3FAE1
:102C200000F04AF8FDF7E7FA0190287900F040003B
:102C300058B1A88820F04000A88000BF17480A3883
:102C4000009026E0E089401EE081A1892289206869
:102C500001FB020ACAF80070A089401C80B2A08162
:102C6000E188884201D10020A08104F11C00FFF717
:102C7000C9FB50B904F11C0002F004FD0198FDF7F6
:102C8000C2FA00F019F8002082E7208A401C208256
:102C900000BF0198FDF7B7FA009879E71106000226
:102CA000900400207C040020200400201804002050
:102CB0003CBCBDE8C09F000010B5FDF79CFA04467F
:102CC000FFF75CFE3C380A494860084600684968DE
:102CD000884208D00748008828B92046FDF793FAB3
:102CE000FDF794FA10BD2046FDF78DFA00BFF9E715
:102CF00018040020200400202DE9F04106462A484F
:102D0000006800EB06150A2E02D32848BDE8F081C2
:102D1000FDF771FA0746287820B93846FDF773FAAF
:102D20002248F3E768884FF6FE71884205D138469D
:102D3000FDF769FA1D48C01DE8E705F10800FFF737
:102D400069FB48BBE868A0F13C04E868FFF73EFB7C
:102D5000A08820F00800A080207900F0400030B169
:102D6000204603F025F9A08820F04000A080002034
:102D7000A061207900F0020040B9A08840F0040072
:102D8000A080E18804F13C00FFF7D2FD3846FDF752
:102D90003AFAFFF791FF05E06888401C68803846E2
:102DA000FDF731FA0020B1E7880400200107000296
:102DB00001490860704700008C04002010B5002411
:102DC000FDF7ECF9204610BD2DE9F04105460F4610
:102DD00000263946284600F045F8064616B130462A
:102DE000BDE8F081286800EB800101EBC0001949C3
:102DF000096801EBC004FDF7FEF98046A08820F0C9
:102E00000200A080A08840F00400A080E18804F1C6
:102E10003C00FFF78DFDFFF7B1FD3C380E494860DF
:102E20000E48006888B10E48008870B908460068EE
:102E30004968884209D00A48008830B94046FDF701
:102E4000E2F902F05BFC0020CAE74046FDF7DBF93F
:102E50000020C5E7140400201804002050040020BE
:102E6000200400202DE9F05F07460D464FF00009D1
:102E70004FF0FF3A17B9574800F0B6B815B95548A2
:102E8000801FF9E7E86910B95248801EF4E7286806
:102E900010B95048C01EEFE7A8881F2802DD4D4832
:102EA000001FE9E7A869B0F5004F02D94948193079
:102EB000E2E7A86910B94FF43470A8610821A86945
:102EC000FFF7E4F8A86110214FF49870FFF7DEF8DF
:102ED000A969884202D93F48401ECDE7FDF78BF92A
:102EE000834611E03C484068A0F13C043A494868F8
:102EF000FFF762FA04F13C013848FFF73AFA384824
:102F0000E1680068FFF7BEFB3348FFF773FA00285B
:102F1000E8D03248FFF76EFA28B1DFF8B8A00AF11E
:102F20000A0A00BF51E02D484068A0F13C042B493B
:102F30004868FFF741FA5846FDF765F9D4F8109054
:102F400008222748A9690068FFF763FB06465EB9B7
:102F5000FDF751F9834604F13C012048FFF709FAD7
:102F6000DFF880A000BF30E032464846A96903F090
:102F700071F88046C4F80080A868A062E968E16240
:102F80002969216369696163E660A869A06000201E
:102F9000A061E06160620220A080A088296A09B176
:102FA000802100E000210843A080A888E0802868F4
:102FB00060614FF0FF3020650020E065E869A063A4
:102FC00000206066C7F8009056E75846FDF71BF9E9
:102FD000504651E707020002400400203804002058
:102FE000940400200002000330BCBDE8C09F000034
:102FF00070B504461948006808B1194870BD1948F1
:10300000008808B11848F9E714B900F05FF8F5E74F
:10301000FDF7F1F805461549096801F13C00FFF795
:103020007BFC12480068808820F004000F49096882
:1030300088800E490868214602F0C4FC0B480068ED
:10304000808840F020000949096888802846FDF7FB
:10305000DAF8FFF731FE0020D0E7000090040020EE
:103060000D020003200400200E02000218040020BC
:1030700010B5FDF7C0F8044604480088401C034919
:1030800008802046FDF7BFF810BD00002004002096
:1030900010B5FDF7B0F804460B48008800280DDD98
:1030A00009480088401E084908800846008828B959
:1030B0002046FDF7A8F8FFF7FFFD10BD2046FDF7FD
:1030C000A2F800BFF9E700002004002070B500243A
:1030D0001C48006800691C490968884201D31B48E4
:1030E00070BDFDF788F8054616490968C888FFF7DE
:1030F00031FC0446012C17D91249096801F13C0042
:10310000FFF75AF90F480068808840F004000D4925
:10311000096888800B4A1268D1880A4A126802F14D
:103120003C00FFF705FC05E02846FDF76CF8074872
:103130000930D5E72846FDF766F8FFF7BDFD00200A
:10314000CEE700001804002024040020070200023B
:1031500010B5FDF750F804460A480068401C0949BC
:1031600008602046FDF74FF802F0BCFEFDF743F87B
:10317000044604480068401E024908602046FDF7E6
:1031800042F810BD90040020704700BFFEE7704772
:1031900002480068C0F30220704700000CED00E018
:1031A00010B5002807DA0A07140E054A00F00F03CD
:1031B0001B1FD45403E00A07130E024A135410BD18
:1031C00018ED00E000E400E02DE9F04104460E4671
:1031D000002700255B48C06800F0030090B1594803
:1031E000C06800F003002168884209D1206838B126
:1031F0005448C068C0F30210401C6168884233D054
:10320000012531E02068012804D0022809D00328D4
:103210001AD10DE04B48006800F0020000B901250A
:1032200014E04848006800F4806000B901250DE012
:103230004448006800F4003028B94248006800F4AF
:10324000802000B9012501E0012500BF00BF5DB964
:10325000D4E90010401E41EA00103A49C96821F043
:10326000730108433749C860002D68D135480068AC
:1032700020F0806033490860FDF76EFE074606E0E7
:10328000FDF76AFEC01B022801D9032505E02D4881
:10329000006800F000600028F2D100BFCDBB6EB91D
:1032A000A0680002E168090940EA4140254909692E
:1032B000254A114008432349086120E0012E0FD11F
:1032C000A0680002218A0122C2EB510140EA41506C
:1032D0001C4909691D4A114008431A4908610EE05A
:1032E000A0680002217D0122C2EB510140EA416049
:1032F00014490969164A11400843124908611148E6
:10330000006840F080600F490860FDF725FE074621
:1033100007E014E0FDF720FEC01B022801D90325B9
:1033200005E00848006800F000600028F2D000BF07
:103330002DB904480069A16908430249086128467B
:10334000BDE8F08100100240FF80FDFFFF809FFF7D
:10335000FF80FFF92DE9F04104460E4600270025C5
:103360005248C06800F0030090B15048C06800F0B7
:1033700003002168884209D1206838B14B48C068F1
:10338000C0F30210401C6168884233D0012531E04F
:103390002068012804D0022809D003281AD10DE0A2
:1033A0004248006800F0020000B9012514E03F48DF
:1033B000006800F4806000B901250DE03B4800681A
:1033C00000F4003028B93948006800F4802000B9C2
:1033D000012501E0012500BF00BF5DB9D4E900105F
:1033E000401E41EA00103149C96821F073010843C9
:1033F0002E49C860002D55D12C48006820F080501F
:103400002A490860FDF7A8FD074606E0FDF7A4FD80
:10341000C01B022801D9032505E02448006800F0FC
:1034200000500028F2D100BFE5BB6EB9A0680002D1
:10343000E168090940EA41401C4949691C4A1140B8
:1034400008431A4948610EE0A0680002217C01226D
:10345000C2EB510140EA416014494969154A1140E3
:103460000843124948611148006840F080500F49F4
:103470000860FDF771FD074606E0FDF76DFDC01B16
:10348000022801D9032505E00848006800F0005033
:103490000028F2D000BF2DB9044840696169084393
:1034A000024948612846BDE8F08100000010024052
:1034B000FF80FDFFFF80FFF9F8B5044600260025D8
:1034C0002348806D00F0805018B1FDF7B5FD064629
:1034D00016E000BF1E48806D40F080501C49886592
:1034E0000846806D00F08050009000BF00BFFDF7DF
:1034F000A3FD06461648806D20F08050144988656B
:10350000B6F5007F07D1802C10D9A02C01D9022557
:103510000CE001250AE0802C01D9032506E0802C6F
:1035200001D1022502E0702C00D101250948006874
:1035300020F007002843074908600846006800F0AB
:103540000700A84201D00120F8BD0020FCE70000E0
:10355000001002400020024070B5044625460122BA
:1035600040212448FDF7F2FC002240212148FDF7CC
:10357000EDFC00224FF480714FF09040FDF7E6FC27
:10358000002280214FF09040FDF7E0FC002629E06A
:1035900005F0800030B1012240214FF09040FDF74E
:1035A000D5FC05E0002240214FF09040FDF7CEFC15
:1035B000012001F08FF8012211024FF09040FDF739
:1035C000C5FC012001F086F800224FF480714FF015
:1035D0009040FDF7BBFC6806050E012001F07AF86B
:1035E000701CC6B2082ED3DB012240210148FDF732
:1035F000ADFC70BD0004004870B5044625460122AC
:1036000040212448FDF7A2FC002240212148FDF77B
:103610009DFC00224FF480714FF09040FDF796FC26
:10362000012280214FF09040FDF790FC002629E018
:1036300005F0800030B1012240214FF09040FDF7AD
:1036400085FC05E0002240214FF09040FDF77EFC14
:10365000012001F03FF8012211024FF09040FDF7E8
:1036600075FC012001F036F800224FF480714FF014
:103670009040FDF76BFC6806050E012001F02AF86A
:10368000701CC6B2082ED3DB012240210148FDF791
:103690005DFC70BD00040048704710B5FFF758FD91
:1036A000FDF760FC10BD00B597B0142112A8FCF71F
:1036B00044FE442101A8FCF740FE102001900120A7
:1036C0000790602009900020089002200B900121B3
:1036D0000C910D9128210E910221119107210F913A
:1036E0000421109101A8FEF7B3F808B100BFFEE76E
:1036F0000F20129003201390002014901590169024
:10370000042112A8FDF70AFF08B100BFFEE717B0B9
:1037100000BD00001048006840F470000E490860C9
:103720000E48006840F001000C49086000208860E5
:10373000084600680A490840084908608814C860BB
:103740000846006820F48020086000208861C803D3
:10375000014980390860704788ED00E000100240A0
:10376000FFFFF6EA90F8241001F0010139B1016879
:10377000496821F40031826A11430268516090F86F
:10378000241001F00201022907D10168496821F4DF
:103790008031C26A11430268516090F8241001F030
:1037A0000401042907D10168496821F48021026BD2
:1037B00011430268516090F8241001F008010829B3
:1037C00007D10168496821F40041426B1143026846
:1037D000516090F8241001F01001102907D1016800
:1037E000896821F48051826B11430268916090F8DE
:1037F000241001F02001202907D10168896821F4F3
:103800000051C26B11430268916090F8241001F0DE
:103810004001402913D10168496821F48011026CEC
:10382000114302685160016CB1F5801F07D1016836
:10383000496821F4C001426C11430268516090F85C
:10384000241001F08001802907D10168496821F422
:103850000021826C114302685160704738B50446FC
:10386000002500206067FDF777FB054620680068AB
:1038700000F0080008280CD16FF07E402B46002293
:103880004FF400110090204600F06BFA08B10320BD
:1038900038BD2068006800F0040004280CD16FF0E7
:1038A0007E402B4600224FF480010090204600F01D
:1038B00058FA08B10320EBE7202084F8710084F85F
:1038C000720000BF002084F8700000BF00BFDFE777
:1038D0002DE9F84F04464FF0000910264FF0000B79
:1038E0000025002000908246F7492068884200D1D8
:1038F00000E000BF2169A068084361690843E169ED
:1039000040EA010920680068F049084040EA0900DF
:10391000216808602068406820F44050E16808434E
:1039200021684860D4F81890E7492068884202D09E
:10393000206A40EA09092068806820F4306040EA83
:1039400009002168886000BFE1492068884216D1DB
:10395000E048006800F0030030B1012808D00228D8
:1039600004D0032808D105E0012607E0022605E07F
:10397000042603E0082601E0102600BF8CE0D649AB
:103980002068884216D1D348006800F00C0030B19E
:10399000042808D0082804D00C2808D105E0002607
:1039A00007E0022605E0042603E0082601E01026D1
:1039B00000BF71E0C9492068884216D1C548006837
:1039C00000F0300030B1102808D0202804D0302872
:1039D00008D105E0002607E0022605E0042603E002
:1039E000082601E0102600BF56E0BD492068884245
:1039F00016D1B848006800F0C00030B1402808D0A7
:103A0000802804D0C02808D105E0002607E002265F
:103A100005E0042603E0082601E0102600BF3BE095
:103A2000B0492068884219D1AA48006800F4407063
:103A300048B1B0F5807F0AD0B0F5007F05D0B0F571
:103A4000407F08D105E0002607E0022605E00426B5
:103A500003E0082601E0102600BF1DE09A49206817
:103A6000884219D19B48006800F4406048B1B0F525
:103A7000806F0AD0B0F5006F05D0B0F5406F08D167
:103A800005E0002607E0022605E0042603E00826FC
:103A900001E0102600BF00BF00BF8B4920688842AC
:103AA00072D1042E10D003DC3EB1022E13D108E0F7
:103AB000082E0DD0102E0ED10EE0FDF723FE82460B
:103AC0000DE0DFF824A20AE0FDF73CFE824606E0A6
:103AD0004FF4004A03E000BF0120009000BF00BF88
:103AE000BAF1000F0AD0606800EB4000504503D8DF
:103AF00060680003504502D20120009025E1042EA9
:103B00002ED003DC3EB1022E51D118E0082E3CD05D
:103B1000102E4CD14CE0FDF7F5FD4FF48071A0FB69
:103B20000131606840081F1841F10001D4F804C059
:103B3000624600233846FCF7C5FB05463BE0D4F857
:103B400004C04FEA5C000021684BC71841EB010834
:103B500062460B4638464146FCF7B4FB05462AE070
:103B6000FDF7F0FD4FF48071A0FB0130616849085A
:103B70005F1840F10001D4F804C0624600233846C3
:103B8000FCF7A0FB054616E022E0D4F804C04FEA9B
:103B90005C0000214FF40003C71841EB01086246A6
:103BA0000B4638464146FCF78DFB054603E000BF57
:103BB0000120009000BF00BFB5F5407F05D3B5F5EB
:103BC000801F02D22068C560BFE001200090BCE0E9
:103BD000E069B0F5004F57D1042E28D005DC4EB176
:103BE000012E11D0022E36D118E0082E29D0102E29
:103BF00031D131E0FDF786FD4000616800EB5100F6
:103C0000B0FBF1F085B22AE0FDF78CFD4000616861
:103C100000EB5100B0FBF1F085B220E03449606860
:103C200001EB50006168B0FBF1F085B217E0FDF7E1
:103C300089FD4000616800EB5100B0FBF1F085B2F6
:103C40000DE04FF48031606801EB50006168B0FB1B
:103C5000F1F085B203E000BF0120009000BF00BF7B
:103C6000102D0ED3B5F5803F0BD24FF6F07005EA5C
:103C7000000BC5F342004BEA000B2068C0F80CB003
:103C800063E00120009060E0042E3CD005DC4EB1E2
:103C9000012E10D0022E49D12CE0082E3CD0102E3F
:103CA00044D144E0FDF72EFD616800EB5100B0FB0C
:103CB000F1F085B23EE0FDF735FD616800EB5100A3
:103CC000B0FBF1F085B235E000800040F369FFEF12
:103CD0000038014088100240004400400048004085
:103CE000004C0040005000400024F400000024F488
:103CF0000048E8011849606801EB50006168B0FBBA
:103D0000F1F085B216E0FDF71DFD616800EB510092
:103D1000B0FBF1F085B20DE04FF40041606801EBBB
:103D200050006168B0FBF1F085B203E000BF0120F4
:103D3000009000BF00BF102D05D3B5F5803F02D223
:103D40002068C56001E001200090002020666066C8
:103D5000009800F003B800000024F40018BCBDE88F
:103D6000E08F2DE9F04104460D4617469846069E21
:103D700021E0701CF8B12EB1FDF7EEF8A0EB0800C1
:103D8000B04218D92068006820F4D070216808601B
:103D90002068806820F0010021688860202084F875
:103DA000710084F8720000BF002084F8700000BF2A
:103DB0000320BDE8F0812068C0692840A84201D1F5
:103DC000012000E00020B842D3D00020F1E700BF7E
:103DD000FEE700000FB4054B10B503A9044A029892
:103DE00000F0DEF810BC5DF814FB00007D4D00080B
:103DF000A404002002E008C8121F08C1002AFAD15A
:103E000070477047002001E001C1121F002AFBD15A
:103E1000704700002DE9FF5F82B00021DDE904302A
:103E2000020DDDF840B0034318D044F61050A2F262
:103E3000FF3242431514119801281FD0A5EB0B0047
:103E4000401C5FEA000A4FF000064E4FDFF8389141
:103E5000B046504615D5CAF1000413E0119801246C
:103E60004AA3012801D16FEA0B010298119AC0E917
:103E70000031C0E9024206B000F08EB8CBF100007C
:103E8000DFE704460021404A491842EB0450CDE9DF
:103E9000001012E0E00707D032463B464046494654
:103EA000FCF71EFC8046894632463B4610461946C2
:103EB000FCF716FC06460F466410002CEAD1DDE93B
:103EC0000401DDE90023BAF1000F06DAFCF708FC73
:103ED00042464B46FCF704FC05E0FCF739FA424643
:103EE0004B46FCF735FA04460E460022284BFCF7F9
:103EF0006DFC03D84FF0FF30014607E00022254B50
:103F000020463146FCF73DFBFCF791FA102409E00E
:103F1000002C0ADB0A220023FCF7D4F9039B303281
:103F20001A55641E50EA0102F2D1641C039AC4F1CE
:103F300011031444119A012A03D0012208430DD120
:103F40000AE0084304D000204FF0110B119072E7F3
:103F5000A3EB0B056D1E0DE05B4504DD4FF0000289
:103F600005F1010504E003DA4FF00002A5F10105B7
:103F7000002AECD002981199C0E90231C0E900454D
:103F800079E70000000014400000F03F300000001E
:103F90000000F0430000E03F30BCBDE8C09F0000DF
:103FA0002DE9FF4F95B09B468946064600250FE256
:103FB000252877D100242746F84A0121059400E0FE
:103FC000044316F8013F203B01FA03F01042F7D1F9
:103FD00030782A2811D06FF02F033078A0F130020A
:103FE000092A16D8059A44F0020402EB820203EB78
:103FF00042021044761C0590EFE759F8042B059215
:10400000002A03DA504244F40054059044F00204BC
:10401000761C30782E2816D116F8010F44F00404CF
:104020002A280DD06FF02F023078A0F13003092B31
:1040300009D807EB870302EB4303C718761CF3E7A5
:1040400059F8047B761C30786C280FD006DC4C289D
:1040500017D068280DD06A2814D104E0742810D035
:104060007A280FD10DE044F400140AE044F48014DF
:1040700001E044F440147278824202D104F58014C5
:10408000761C761C307866280BD013DC582877D045
:1040900009DC002875D04528F6D04628F4D04728FA
:1040A0001AD19DE118E0632835D0642879D06528BD
:1040B00012D195E1702873D008DC6728F1D0692807
:1040C0006FD06E280DD06F2806D1B5E073282CD0A4
:1040D000752875D0782874D05A46179990476D1C6A
:1040E00075E1C4F30250022809D003280DD0D9F895
:1040F000001004280DD00D6009F1040967E1D9F81A
:104100000010EA17C1E90052F6E7D9F800100D8057
:10411000F2E70D70F0E719F8041B8DF8001000208D
:104120008DF80100EA46012003E059F804AB4FF096
:10413000FF3061074FF0000102D40DE008F10101EA
:104140008846B9420FDA8045F8DB1AF808100029D2
:10415000F4D108E008F1010188468142FADB1AF83F
:1041600008100029F6D105985B46A0EB0807214608
:104170003846179A00F097FA284400EB080507E044
:104180004DE029E10DE01AF8010B5A4617999047C6
:10419000B8F10108F7D25B4621463846179A13E179
:1041A00042E00A220092C4F302524FF0000A022AAF
:1041B00008D059F804CB032A4FEAEC710AD00DE07D
:1041C00029E02AE009F1070121F00702F2E802C123
:1041D000914609E00FFA8CFC4FEAEC71042A03D1F6
:1041E0004FFA8CFC4FEAEC71002907DA0A460021ED
:1041F000DCF1000C61EB02012D2202E0220504D566
:104200002B228DF80420012203E0E20701D02022B6
:10421000F7E7904659E00A2102E010220DE0102154
:104220004FF0000A00910BE010224FF0000A44F01A
:1042300004040827009203E008224FF0000A0092CD
:10424000C4F30252022A05D059F804CB0021032AF4
:1042500008D009E009F1070121F00702F2E802C1E4
:10426000914605E01FFA8CFC042A01D10CF0FF0CEA
:104270004FF00008220728D5702806D0009B83F055
:10428000100353EA0A0305D00EE040228DF8042003
:10429000012208E05CEA010206D030228DF80420F9
:1042A0008DF8050002229046009B83F0080353EA34
:1042B0000A030AD15CEA010201D1620705D5302266
:1042C0008DF804204FF001087F1E582804D034A038
:1042D00003900EA802900DE036A0F9E75346604621
:1042E000009AFBF7EFFF84460398825C0298401E19
:1042F000029002705CEA0100F0D1029806A9081A47
:1043000000F1200A600702D524F4803400E0012780
:10431000574502DDA7EB0A0000E0002000EB0A0190
:10432000009005984144401A0590E00306D45B468E
:104330002146179A059800F0B6F90544002706E0D3
:1043400001A85A46C05D179990476D1C7F1C4745D0
:10435000F6DBE0030CD55B462146179A059800F082
:10436000A2F9054404E030205A46179990476D1C85
:104370000099481E00900029F5DC08E00298029997
:104380005A460078491C0291179990476D1CBAF162
:104390000001AAF1010AF1DC65E100000928010031
:1043A00030313233343536373839616263646566AB
:1043B000000000003031323334353637383941426D
:1043C000434445460000000000F05BF90544761CBC
:1043D000307800287FF4ECAD19B0284600F04EB9D3
:1043E000620700D4062709F1070222F0070CFCE857
:1043F0000223E14603F000485FEA080C02D00FF206
:10440000702C0DE05FEA045C02D50FF2682C07E027
:104410005FEAC47C02D00FF2602C01E0AFF2700CB6
:104420004FF0FF3823F00043CDF850C065280CD082
:1044300006DC452809D046281DD047283DD13DE05F
:10444000662818D067287ED138E00021112F01DBC3
:10445000112000E0781CCDE9000106A90EA8FFF7A5
:10446000D9FCDDE90F010E9A03910021009207F1BA
:10447000010A04914DE04FF000400097CDE9011092
:1044800006A90EA8FFF7C6FCDDE90F0203920E9BFA
:1044900011990022DDF80CA00093049211B9791C47
:1044A00000EB010AB7EB0A0004D4C0F1FF3007F1BA
:1044B000010A0490AAEB0700019044E0012F00DA02
:1044C00001270021112F01DD112000E03846CDE940
:1044D000000106A90EA8FFF79DFCDDE90F010E9A69
:1044E0000391002104910092BA4621070CD403994C
:1044F000514500DA8A46BAF1010F05DD009AAAF1AA
:104500000101515C302908D0B84202DA10F1040FE1
:1045100006DA0121CDE9011015E0AAF10101E9E770
:10452000002805DC049901440491AAEB000102E093
:10453000411C514500DD8A460499401A401C0190F7
:104540004FF000400290200704D40198504501DB51
:10455000CDF8048000208DF84F0002980DF14F0730
:10456000B0F1004F25D02B200E9002984FF002089A
:1045700000280CDA404202902D200E9007E00A211C
:104580000298FBF76CFF3031029007F8011DB8F17B
:104590000001A8F10108F2DC02980028EFD1791E91
:1045A0000E980870307800F0200040F0450007F8C1
:1045B000020D12A8C01B00F107081498007800B182
:1045C000012000EB0A01019801EBE07105984144DC
:1045D000401A401E0590E00306D45B462146179A18
:1045E000059800F060F805441498007818B15A4610
:1045F000179990476D1CE00324D55B462146179A16
:10460000059800F050F805441CE00498002807DBEA
:10461000DDE90301884203DD0098405C179901E061
:10462000179930205A469047049805F10105401C1F
:1046300004900198401E019004D12E205A461799EB
:1046400090476D1CBAF10001AAF1010ADDDC05E01A
:1046500017F8010B5A46179990476D1CB8F10001E5
:10466000A8F10108F4DC5B462146179A0598ABE6F1
:104670002D0000002B0000002000000030BCBDE831
:10468000C08F2DE9F041044600251E4617468804D8
:1046900004D405E039462020B0476D1C641EF9D5CE
:1046A0002846BDE8F0812DE9F041044600251E466C
:1046B0009046C80301D5302700E02027880404D5A0
:1046C00005E041463846B0476D1C641EF9D52846C2
:1046D000BDE8F081502104E000BF0A1EA1F10101F4
:1046E000FBD1021EA0F10100F6D1704710B50024E5
:1046F0001020FEF731FF00BF04E00020FEF77CFF32
:10470000601C84B243F698208442F6DB1320FEF747
:1047100023FF002404E0FF20FEF76EFF601C84B23C
:1047200043F698208442F6DB10BD000010B500BFB0
:1047300011A0FFF74FFB134913A0FFF74BFB16A087
:10474000FFF748FB00BF0620FEF706FF1720FEF725
:1047500053FF1720FEF750FF1720FEF74DFF00BF55
:1047600005A0FFF737FB07490CA0FFF733FB0AA0B2
:10477000FFF730FB00BF10BD5B44454255475D204D
:10478000000000005C5401085B25735D20456E74D9
:1047900065722E2E2E0D0A000D0A00005B25735D3A
:1047A00020457869742E2E2E0D0A000010B500BF2A
:1047B0007120FEF7D1FE4FF480710748FCF7BEFB75
:1047C000044604F0010080F00104002CF0D16420C4
:1047D00000F082FB10BD00000004004810B500BFCF
:1047E00057A0FFF7F7FA594959A0FFF7F3FA66A067
:1047F000FFF7F0FA00BF00F011F9FFF797FF012073
:10480000FEF7AAFE0320FEF7F7FE0020FEF7F4FEF7
:104810002B20FEF7F1FE2B20FEF7EEFE012000F02C
:1048200029FA00BF46A0FFF7D5FA484957A0FFF77D
:10483000D1FA55A0FFF7CEFA00BFFFF7B7FF00BFD0
:104840003FA0FFF7C7FA41495BA0FFF7C3FA4EA0AC
:10485000FFF7C0FA00BF00F002FA3020FEF77CFE3E
:104860003A20FEF7C9FE6120FEF776FE0120FEF732
:10487000C3FE9020FEF7C0FE0120FEF7BDFE2C20F7
:10488000FEF7BAFE8220FEF767FE2820FEF7B4FE90
:104890005020FEF761FE9720FEF7AEFE00F076FA9C
:1048A0004F4800F00BF900F0D5F9642000F014FB3C
:1048B00000BF23A0FFF78EFA244934A0FFF78AFA3D
:1048C00031A0FFF787FA00BFFFF770FF00BF1CA001
:1048D000FFF780FA1D4938A0FFF77CFA2AA0FFF7FE
:1048E00079FA00BFFFF702FF00F0B4F9642000F08E
:1048F000F3FA00BF12A0FFF76DFA144923A0FFF7E7
:1049000069FA21A0FFF766FA00BFFFF74FFF00BF6B
:104910000BA0FFF75FFA0D4927A0FFF75BFA1AA07B
:10492000FFF758FA00BF00BF05A0FFF753FA074989
:104930002CA0FFF74FFA14A0FFF74CFA00BF10BDF0
:104940005B44454255475D20000000008F5401083C
:104950005B25735D20656C696E6B20342E32206997
:104960006E63682065506170657220646973706C55
:10497000617920696E697469616C205354415254A5
:104980002E2E2E0D0A0000000D0A00000D0A5B25D8
:10499000735D20656C696E6B5F636865636B5F62F6
:1049A0007573795F737461747573205354415254F5
:1049B0002E2E2E0D0A0000000D0A5B25735D20656A
:1049C0006C696E6B5F636865636B5F627573795F5B
:1049D00073746174757320454E442E2E2E0D0A009B
:1049E00096DF00080D0A5B25735D20656C696E6BB0
:1049F00020342E3220696E636820655061706572C4
:104A000020646973706C617920696E697469616C86
:104A100020454E44202E2E2E0D0A000010B500BF5A
:104A200018A0FFF7D7F91A491AA0FFF7D3F91DA06C
:104A3000FFF7D0F900BF00224FF400511A48FCF7ED
:104A400085FA00224FF400711748FCF77FFA4FF403
:104A50007A7000F041FA012251021348FCF776FA0D
:104A60004FF47A7000F038FA00BF06A0FFF7B2F9F1
:104A700007490EA0FFF7AEF90AA0FFF7ABF900BF98
:104A800010BD00005B44454255475D20000000001A
:104A9000485401085B25735D20456E7465722E2EA7
:104AA0002E0D0A000D0A0000000400485B25735D0E
:104AB00020457869742E2E2E0D0A000070B505462B
:104AC000002400BF1CA0FFF785F91E491EA0FFF7B8
:104AD00081F927A0FFF77EF900BF1020FEF73CFD0B
:104AE00000BF04E0FF20FEF787FD601C84B243F6A0
:104AF00098208442F6DB022000F0EEF91320FEF746
:104B00002BFD002404E0285DFEF776FD601C84B2D6
:104B100043F698208442F6DB022000F0DDF900BF66
:104B200005A0FFF757F9074912A0FFF753F910A0A6
:104B3000FFF750F900BF70BD5B44454255475D200B
:104B400000000000755401080D0A5B25735D207399
:104B5000656E6420646973706C6179206275666645
:104B600065725B5D2053544152542E2E2E0D0A0067
:104B70000D0A00000D0A5B25735D2073656E6420CD
:104B8000646973706C6179206275666665725B5DDD
:104B900020454E442E2E2E0D0A00000000B587B091
:104BA00000BF2648C06C40F002002449C864084693
:104BB000C06C00F00200019000BF00BF48150290D9
:104BC00002200590002004900120039002A91C48B7
:104BD000FCF7B0F800BF1948C06C40F0020017495C
:104BE000C8640846C06C00F00200019000BF00BF1E
:104BF00088150290022005900020039002A9104819
:104C0000FCF798F800BF0D48C06C40F002000B495B
:104C1000C8640846C06C00F00200019000BF00BFED
:104C20004FF400500290022005900120039002A949
:104C30000348FCF77FF807B000BD000000100240F9
:104C40000004004810B50720FEF786FCA520FEF7FB
:104C5000D3FC10BD10B51220FEF77EFC10BD10B5C0
:104C60000020FEF779FCBF20FEF7C6FC0D20FEF702
:104C7000C3FC10BD10B504461CB10420FEF76CFC4B
:104C800002E00220FEF768FC10BD10B55020FEF7D0
:104C900063FC1720FEF7B0FC10BD000000B587B024
:104CA00000BF3448C06C40F001003249C864084677
:104CB000C06C00F00100019000BF00BF8815029099
:104CC00002200590002004900120039002A94FF0DB
:104CD0009040FCF72FF800BF2648C06C40F0010060
:104CE0002449C8640846C06C00F00100019000BF70
:104CF00000BF40200290022005900120039002A9ED
:104D00004FF09040FCF716F800BF1A48C06C40F016
:104D100001001849C8640846C06C00F00100019009
:104D200000BF00BF80200290022005900120039068
:104D300002A94FF09040FBF7FDFF00BF0D48C06C8B
:104D400040F002000B49C8640846C06C00F0020045
:104D5000019000BF00BF402002900120039000207E
:104D600004900220059002A90348FBF7E3FF07B077
:104D700000BD0000001002400004004870B5044669
:104D80000D46E0B2FDF7DEFA204670BD10B52020DA
:104D9000FEF7E2FB002404E01B49085DFEF72CFC53
:104DA000641C2C2CF8D32120FEF7D6FB002404E051
:104DB0001649085DFEF720FC641C2A2CF8D322203B
:104DC000FEF7CAFB002404E01149085DFEF714FC5D
:104DD000641C2A2CF8D32320FEF7BEFB002404E039
:104DE0000C49085DFEF708FC641C2A2CF8D324202B
:104DF000FEF7B2FB002404E00749085DFEF7FCFB68
:104E0000641C2A2CF8D310BDA0520108CC52010812
:104E1000F6520108205301084A53010810B520201A
:104E2000FEF79AFB002404E01B49085DFEF7E4FB53
:104E3000641C2C2CF8D32120FEF78EFB002404E008
:104E40001649085DFEF7D8FB641C2A2CF8D32220F3
:104E5000FEF782FB002404E01149085DFEF7CCFB5D
:104E6000641C2A2CF8D32320FEF776FB002404E0F0
:104E70000C49085DFEF7C0FB641C2A2CF8D32420E3
:104E8000FEF76AFB002404E00749085DFEF7B4FB67
:104E9000641C2A2CF8D310BD74530108A0530108D8
:104EA000CA530108F45301081E54010810B5FDF758
:104EB00057FA04460CB1012010BDFDF7DFF9044696
:104EC0000CB10120F8E7FDF718FAFDF7EDF8FDF752
:104ED00075FF00BFFEE7000070B5044600250A48D4
:104EE000006808B1822070BD0CB90020FBE72046A5
:104EF000FDF75EFB06463046FEF77AF805460DB92B
:104F00004020F0E78120EEE79004002000F03CF81C
:104F100000BFFEE710B5102404E00548054941F83C
:104F20002400641CFF2CF8D9FEF72EF910BD0000F8
:104F30000D4F00080000002000BFFEE710B58AB04A
:104F4000242101A8FBF7F9F90A4801904FF4A06069
:104F5000079009A008901F20ADF8080001A9094892
:104F6000FDF732FF044614B120460AB010BD002000
:104F7000FBE70000394F000849646C65436F7265B8
:104F8000303030002804002010B5FBF72FF904461C
:104F9000204610BD10B500F0A3FB00F079FA0446DE
:104FA0006CB100BF2DA0FEF715FF21462DA0FEF726
:104FB00011FF33A0FEF70EFF00BF204610BD3148A1
:104FC000007808B1FFF7A6FF00F0D4FD044664B1F5
:104FD00000BF22A0FEF7FEFE2BA0FEF7FBFE28A0DE
:104FE000FEF7F8FE00BF2046E8E700F08BFB044622
:104FF0000CB12046E2E700F05DFA04460CB1204611
:10500000DCE700F0E1FA044664B100BF13A0FEF74C
:10501000E1FE22A0FEF7DEFE19A0FEF7DBFE00BFD8
:105020002046CBE700F09AFB044664B100BF0BA01A
:10503000FEF7D0FE1EA0FEF7CDFE11A0FEF7CAFEC1
:1050400000BF2046BAE700F0FDFFFFF777FF0446F8
:105050000CB12046B2E70020B0E700005B45525299
:105060005D2000006F734D656D53797374656D49F4
:105070006E6974206572726F722025640A000000E8
:105080000D0A0000C06300086F735461736B496EB2
:105090006974206572726F720A0000006F73517537
:1050A000657565496E6974206572726F720A0000D9
:1050B0006F735377546D72496E6974206572726FA5
:1050C000720A00002DE9F04107460E46002406F161
:1050D000130020F003052946384600F0A4F80446E2
:1050E0007CB900BF15A0FEF775FE2A46154916A02B
:1050F000FEF770FE23A0FEF76DFE00BF0020BDE8A6
:10510000F08105F11400E168814204D32A4621466A
:10511000384600F075F92046FDF762F9204600F0A8
:105120005FF9E06840F00040E060E16821F0004095
:1051300000F0CEFD04F11000E1E700005B455252A3
:105140005D200000886300085B25735D204E6F20A2
:105150007375697461626C65206672656520626C46
:105160006F636B2C2072657175697265206672655C
:1051700065206E6F64652073697A653A2030782502
:10518000780A00000D0A00002DE9F84F05460C468C
:105190002E4605F1E00870682844A0F1100A7068F6
:1051A00047194FF000092B465246414620460097CA
:1051B00000F0E4F810B9012000F032B8E06800F027
:1051C000004008B90120F7E7E06820F0004000EB5C
:1051D00004092B46524641464846009700F0CEF857
:1051E00008B90120E8E7D9F80800A04201D0012061
:1051F000E2E7444512D000972B4652464146A0684C
:1052000000F0BCF808B90120D6E7A068C16821F019
:1052100000410844A04201D00120CDE70020CBE7A7
:1052200018BCBDE8E08F70B505460E460024314637
:1052300005F10800FDF70DF8044618E0002061684C
:10524000084605E0C168B14200D370BD4168084618
:10525000A042F7D105F108002146024602F1D00331
:105260008B4201D1002301E001F108031C46002C10
:10527000E4D10020E9E700002DE9F04104460E46A4
:105280000027B846E16821F0004000F007FDE06823
:1052900020F00040E060A068002837D0A068C06817
:1052A00000F00040002831D1A568204600F085F8C4
:1052B000E86820F000404719F86800F0004028B97D
:1052C0003846FDF78DF8384600F077F82846FDF7A8
:1052D00087F806F10800E968FCF7BBFF8046B8F1E3
:1052E000000F0ED100BF1FA0FEF774FDCA221F4998
:1052F0001FA0FEF76FFD20A0FEF76CFD00BFBDE80C
:10530000F08129464046FDF750F828E0E06820F09B
:1053100000400719F86800F0004028B93846FDF74A
:105320005FF8384600F049F806F10800E168FCF73C
:1053300090FF8046B8F1000F0DD100BF09A0FEF725
:1053400049FDDC2209490AA0FEF744FD0AA0FEF748
:1053500041FD00BFD3E721464046FDF726F800BFD8
:10536000CDE700005B4552525D2000007A630008E3
:1053700025732025640A00000D0A000030B504469C
:10538000039DA14201D8944201D9002030BDE068BC
:1053900000F0004038B120686040401C08B1002097
:1053A000F4E70120F2E72068984202D32068A8427F
:1053B00001D30020EAE70120E8E700218268D268F3
:1053C000C3681A448368DA60C268111882688A6008
:1053D00000BF002202604260826000BF7047000090
:1053E000C14301600549096821B104490968096997
:1053F000416002E04FF0FF31416070471804002027
:105400002DE9F04780460D46164600240027A146A8
:10541000AC19A560E868801BE060EE60E06820F0F1
:1054200000400719BC60F86800F0004028B9384611
:10543000FCF7D6FF3846FFF7C0FF08F10800E16827
:10544000FCF707FF8146B9F1000F0ED100BF0AA09B
:10545000FEF7C0FCA3220A490AA0FEF7BBFC0BA082
:10546000FEF7B8FC00BFBDE8F08721464846FCF7D0
:105470009CFF00BFF7E700005B4552525D20000033
:105480006C63000825732025640A00000D0A0000E3
:1054900010B50648064908604FF40041044800680A
:1054A000FDF71AF90446204610BD000090050020C3
:1054B0009404002070B51248FCF7B7FFF0211148A2
:1054C0000068FDF789F8104908600846006808B9C7
:1054D0000E4870BD00240EE004EB44000A49096840
:1054E00001EBC0056C600020287005F1080104483C
:1054F000FCF7ACFF641C0A2CEED30020E9E70000A7
:10550000740400209404002070040020001D000298
:1055100070B5002400254FF4807529460C480068BA
:10552000FDF75AF80B4908600846006800B970BDDD
:105530000020044608E00749096801EBC400406008
:10554000006000BF601C0446202CF4D300BFEEE7CF
:1055500094040020000400202DE9F0470646884608
:105560001746994615480468002507E0A08818B931
:10557000681CC8F8000003E06D1C2C340A2DF5D31C
:1055800000BF0A2D02D10E48BDE8F0872C2120462D
:10559000FAF7D3FE06FB07F10A480068FDF71CF88E
:1055A0002060206810B90648801EEDE7E68027815C
:1055B0000120A080C9F800400020E5E77C0400201D
:1055C000040600029404002010B54FF4DC71094871
:1055D0000068FDF701F8084908600846006808B946
:1055E000064810BD4FF4DC7103480068FAF7A5FEC9
:1055F0000020F6E7940400207C040020010600024D
:105600002DE9F04104460D4617464FF000080026EC
:1056100004F13C00FDF780F9A08820F00400A08090
:1056200004F13C08A08840F40050A0802846FCF714
:10563000E9FE30B100BF41462868FCF7A8FE00BF74
:1056400014E06868A0F13C0607E0E088F188884231
:1056500000DA06E0306CA0F13C0606F13C00A842FE
:10566000F3D100BF4146F06BFCF791FE781C38B1D6
:10567000A08840F04000A0803946204600F0A2F902
:10568000BDE8F08170B505466868A0F13C04686823
:10569000D0E900121160D0E9002151600021416081
:1056A000016000BFA08820F40050A080207900F0A5
:1056B000400030B1204600F07BFCA08820F0400084
:1056C000A080207900F0020040B9A08840F00400DA
:1056D000A080E18804F13C00FDF72AF970BD0000CC
:1056E0001020034908600348034908607047000020
:1056F00024040020908500209804002010B5FAF7BB
:1057000085FD10BD70B51148FCF795FEA02110482D
:105710000068FCF761FF0F4908600846006808B997
:105720000D4870BD00240CE00A48006800EB041529
:105730006C600020287005F108010448FCF78EFE1B
:10574000641C0A2CF0D30020EBE70000800400204A
:105750009404002088040020000700022DE9F8438B
:105760000020224908604FF4007841462048006834
:10577000FCF732FF044614B91E48BDE8F8834146E1
:105780002046FAF7DAFD1C4804601C48046000203B
:10579000208125462034012705E027812C602546FD
:1057A000781C87B22034102FF7DB0822D021144850
:1057B000FDF772F8064616B10E48C01CDDE704205E
:1057C0000023104A102100901846FDF7F5F8064610
:1057D00016B10848001DD0E700F06EF8064616B175
:1057E0000448401DC9E70020C7E70000100400205E
:1057F0009404002007030002080400200C04002089
:10580000C00400200404002010B500220021837988
:105810003BB9437913B14379022B02D14369C36089
:1058200001E00369C3600F4B19680AE0CB68C468E4
:10583000A34200D907E0C368CC681B1BC3600A46BB
:1058400009680029F2D100BF016019B1CB68C468B2
:105850001B1BCB6012B9034B186000E010600223E1
:10586000037110BD100400200EB50020029000BF8F
:105870004FF0FF33042202A90D480068FDF7DEF85F
:105880000446002CF4D102980028F1D00298006858
:10589000009002984068019006480299FCF7AAFF20
:1058A00000980028E4D0DDE900108847E0E7000018
:1058B00004040020C004002010B58AB0242101A8EF
:1058C000FAF73BFD094801904FF43470079008A0A7
:1058D00008900020ADF808008020099001A9074831
:1058E000FDF772FA044620460AB010BD6958000858
:1058F0005377745F5461736B000000002C04002028
:1059000070B51F48046836E01D49206808601D48CE
:10591000FCF750FF05467DB1E0692860A06968602A
:1059200000230422294618480068FDF723F918B11E
:1059300029461448FCF75EFF6079A0B9204600F0C4
:1059400025F820894FF6E071884203DA208910306B
:1059500020810EE02089C11700EB11710911A0EB25
:105960000111218105E0A079401CA0712046FFF7BC
:105970004BFF0348046814B1E0680028C4D070BD30
:1059800010040020C004002004040020034909681A
:105990000160024908600021017170470C04002079
:1059A00010B50748006848B105480068C068401E47
:1059B00003490968C86008B9FFF7A2FF002010BDBD
:1059C000100400202DE9F0470446884608F01F0720
:1059D0004FEA581907B101E0A9F10109E06C00F0A4
:1059E000784040EA0900E06425488088074407F0D1
:1059F0001F07E06C67F3DF60E0642148006800EB9C
:105A0000C7067068B04205D104F144013046FCF786
:105A100015FD33E07068A0F1440500BFE86C20F08C
:105A20007840E16C21F0784188420CD8E06C20F09D
:105A30007840E96C21F07841401AE16C01F078413E
:105A40000843E0640CE0E86C20F07840E16C21F061
:105A50007841401AE96C01F078410843E86406E0B7
:105A6000A86CA0F1440505F14400B042D6D100BFB6
:105A700004F1440105F14400FCF7E0FCBDE8F087C7
:105A8000480400202DE9F041054605EB850000EBB8
:105A9000C5002949096801EBC004E06930B16669B5
:105AA00004F128000FC8B047206204E0666904F1E1
:105AB00028000FC8B047207900F0800050B1FAF7F5
:105AC0009AFB074600201D4908803946206900F0EE
:105AD0008BF92EE0FAF78FFB074600201749088064
